{"abi":[{"type":"function","name":"encodeCall","inputs":[{"name":"to","type":"address","internalType":"address"},{"name":"amount","type":"uint256","internalType":"uint256"}],"outputs":[{"name":"","type":"bytes","internalType":"bytes"}],"stateMutability":"pure"},{"type":"function","name":"encodeWithSelector","inputs":[{"name":"to","type":"address","internalType":"address"},{"name":"amount","type":"uint256","internalType":"uint256"}],"outputs":[{"name":"","type":"bytes","internalType":"bytes"}],"stateMutability":"pure"},{"type":"function","name":"encodeWithSignature","inputs":[{"name":"to","type":"address","internalType":"address"},{"name":"amount","type":"uint256","internalType":"uint256"}],"outputs":[{"name":"","type":"bytes","internalType":"bytes"}],"stateMutability":"pure"},{"type":"function","name":"test","inputs":[{"name":"_contract","type":"address","internalType":"address"},{"name":"data","type":"bytes","internalType":"bytes"}],"outputs":[],"stateMutability":"nonpayable"}],"bytecode":{"object":"0x6080604052348015600e575f5ffd5b506106908061001c5f395ff3fe608060405234801561000f575f5ffd5b506004361061004a575f3560e01c806325adff1c1461004e5780635fc6ac0e1461007e5780637e3b06fb146100ae57806393e01418146100de575b5f5ffd5b610068600480360381019061006391906103bd565b6100fa565b604051610075919061046b565b60405180910390f35b610098600480360381019061009391906103bd565b61015c565b6040516100a5919061046b565b60405180910390f35b6100c860048036038101906100c391906103bd565b6101de565b6040516100d5919061046b565b60405180910390f35b6100f860048036038101906100f391906104ec565b610278565b005b6060828260405160240161010f929190610567565b60405160208183030381529060405263a9059cbb60e01b6020820180517bffffffffffffffffffffffffffffffffffffffffffffffffffffffff8381831617835250505050905092915050565b606063a9059cbb60e01b8383604051602401610179929190610567565b604051602081830303815290604052907bffffffffffffffffffffffffffffffffffffffffffffffffffffffff19166020820180517bffffffffffffffffffffffffffffffffffffffffffffffffffffffff8381831617835250505050905092915050565b606082826040516024016101f3929190610567565b6040516020818303038152906040527fa9059cbb000000000000000000000000000000000000000000000000000000007bffffffffffffffffffffffffffffffffffffffffffffffffffffffff19166020820180517bffffffffffffffffffffffffffffffffffffffffffffffffffffffff8381831617835250505050905092915050565b5f8373ffffffffffffffffffffffffffffffffffffffff1683836040516102a09291906105ca565b5f604051808303815f865af19150503d805f81146102d9576040519150601f19603f3d011682016040523d82523d5f602084013e6102de565b606091505b5050905080610322576040517f08c379a00000000000000000000000000000000000000000000000000000000081526004016103199061063c565b60405180910390fd5b50505050565b5f5ffd5b5f5ffd5b5f73ffffffffffffffffffffffffffffffffffffffff82169050919050565b5f61035982610330565b9050919050565b6103698161034f565b8114610373575f5ffd5b50565b5f8135905061038481610360565b92915050565b5f819050919050565b61039c8161038a565b81146103a6575f5ffd5b50565b5f813590506103b781610393565b92915050565b5f5f604083850312156103d3576103d2610328565b5b5f6103e085828601610376565b92505060206103f1858286016103a9565b9150509250929050565b5f81519050919050565b5f82825260208201905092915050565b8281835e5f83830152505050565b5f601f19601f8301169050919050565b5f61043d826103fb565b6104478185610405565b9350610457818560208601610415565b61046081610423565b840191505092915050565b5f6020820190508181035f8301526104838184610433565b905092915050565b5f5ffd5b5f5ffd5b5f5ffd5b5f5f83601f8401126104ac576104ab61048b565b5b8235905067ffffffffffffffff8111156104c9576104c861048f565b5b6020830191508360018202830111156104e5576104e4610493565b5b9250929050565b5f5f5f6040848603121561050357610502610328565b5b5f61051086828701610376565b935050602084013567ffffffffffffffff8111156105315761053061032c565b5b61053d86828701610497565b92509250509250925092565b6105528161034f565b82525050565b6105618161038a565b82525050565b5f60408201905061057a5f830185610549565b6105876020830184610558565b9392505050565b5f81905092915050565b828183375f83830152505050565b5f6105b1838561058e565b93506105be838584610598565b82840190509392505050565b5f6105d68284866105a6565b91508190509392505050565b5f82825260208201905092915050565b7f63616c6c206661696c65640000000000000000000000000000000000000000005f82015250565b5f610626600b836105e2565b9150610631826105f2565b602082019050919050565b5f6020820190508181035f8301526106538161061a565b905091905056fea26469706673582212201d25f5a9bead6df34c903818d8a35d63f9475978fc1aa12d45faf18770bad2ac64736f6c63430008210033","linkReferences":{}},"methodIdentifiers":{"encodeCall(address,uint256)":"25adff1c","encodeWithSelector(address,uint256)":"5fc6ac0e","encodeWithSignature(address,uint256)":"7e3b06fb","test(address,bytes)":"93e01418"},"id":24}