{"abi":[{"type":"function","name":"num","inputs":[],"outputs":[{"name":"","type":"uint256","internalType":"uint256"}],"stateMutability":"view"},{"type":"function","name":"testAssert","inputs":[],"outputs":[],"stateMutability":"view"},{"type":"function","name":"testCustomError","inputs":[{"name":"_withdrawAmount","type":"uint256","internalType":"uint256"}],"outputs":[],"stateMutability":"view"},{"type":"function","name":"testRequire","inputs":[{"name":"_i","type":"uint256","internalType":"uint256"}],"outputs":[],"stateMutability":"pure"},{"type":"function","name":"testRevert","inputs":[{"name":"_i","type":"uint256","internalType":"uint256"}],"outputs":[],"stateMutability":"pure"},{"type":"error","name":"InsufficientBalance","inputs":[{"name":"balance","type":"uint256","internalType":"uint256"},{"name":"withdrawAmount","type":"uint256","internalType":"uint256"}]}],"bytecode":{"object":"0x6080604052348015600e575f5ffd5b506103548061001c5f395ff3fe608060405234801561000f575f5ffd5b5060043610610055575f3560e01c806320987767146100595780632b813bc0146100755780634e70b1dc1461007f57806375f7286c1461009d578063b8bd717f146100b9575b5f5ffd5b610073600480360381019061006e91906101ff565b6100d5565b005b61007d61011b565b005b61008761012e565b6040516100949190610239565b60405180910390f35b6100b760048036038101906100b291906101ff565b610133565b005b6100d360048036038101906100ce91906101ff565b610182565b005b600a8111610118576040517f08c379a000000000000000000000000000000000000000000000000000000000815260040161010f906102ac565b60405180910390fd5b50565b5f5f541461012c5761012b6102ca565b5b565b5f5481565b5f4790508181101561017e5780826040517fcf4791810000000000000000000000000000000000000000000000000000000081526004016101759291906102f7565b60405180910390fd5b5050565b600a81116101c5576040517f08c379a00000000000000000000000000000000000000000000000000000000081526004016101bc906102ac565b60405180910390fd5b50565b5f5ffd5b5f819050919050565b6101de816101cc565b81146101e8575f5ffd5b50565b5f813590506101f9816101d5565b92915050565b5f60208284031215610214576102136101c8565b5b5f610221848285016101eb565b91505092915050565b610233816101cc565b82525050565b5f60208201905061024c5f83018461022a565b92915050565b5f82825260208201905092915050565b7f496e707574206d7573742062652067726561746572207468616e2031300000005f82015250565b5f610296601d83610252565b91506102a182610262565b602082019050919050565b5f6020820190508181035f8301526102c38161028a565b9050919050565b7f4e487b71000000000000000000000000000000000000000000000000000000005f52600160045260245ffd5b5f60408201905061030a5f83018561022a565b610317602083018461022a565b939250505056fea2646970667358221220877ac530872ef3f69d05de3a898328efcee704b5208c6c5e062b1f14dc3744c964736f6c63430008210033","linkReferences":{}},"methodIdentifiers":{"num()":"4e70b1dc","testAssert()":"2b813bc0","testCustomError(uint256)":"75f7286c","testRequire(uint256)":"b8bd717f","testRevert(uint256)":"20987767"},"id":22}