{"abi":[{"type":"function","name":"arr","inputs":[{"name":"","type":"uint256","internalType":"uint256"}],"outputs":[{"name":"","type":"uint256","internalType":"uint256"}],"stateMutability":"view"},{"type":"function","name":"arr2","inputs":[{"name":"","type":"uint256","internalType":"uint256"}],"outputs":[{"name":"","type":"uint256","internalType":"uint256"}],"stateMutability":"view"},{"type":"function","name":"examples","inputs":[],"outputs":[],"stateMutability":"pure"},{"type":"function","name":"get","inputs":[{"name":"i","type":"uint256","internalType":"uint256"}],"outputs":[{"name":"","type":"uint256","internalType":"uint256"}],"stateMutability":"view"},{"type":"function","name":"getArr","inputs":[],"outputs":[{"name":"","type":"uint256[]","internalType":"uint256[]"}],"stateMutability":"view"},{"type":"function","name":"getLength","inputs":[],"outputs":[{"name":"","type":"uint256","internalType":"uint256"}],"stateMutability":"view"},{"type":"function","name":"myFixedSizeArr","inputs":[{"name":"","type":"uint256","internalType":"uint256"}],"outputs":[{"name":"","type":"uint256","internalType":"uint256"}],"stateMutability":"view"},{"type":"function","name":"pop","inputs":[],"outputs":[],"stateMutability":"nonpayable"},{"type":"function","name":"push","inputs":[{"name":"i","type":"uint256","internalType":"uint256"}],"outputs":[],"stateMutability":"nonpayable"},{"type":"function","name":"remove","inputs":[{"name":"index","type":"uint256","internalType":"uint256"}],"outputs":[],"stateMutability":"nonpayable"}],"bytecode":{"object":"0x60806040526040518060600160405280600160ff168152602001600260ff168152602001600360ff16815250600190816100399190610250565b50348015610045575f5ffd5b506102d4565b7f4e487b71000000000000000000000000000000000000000000000000000000005f52604160045260245ffd5b5f81549050919050565b5f819050919050565b5f8190506001806001038301049050919050565b5f819050815f5260205f209050919050565b5f82821b905092915050565b5f600883026100ec7fffffffffffffffffffffffffffffffffffffffffffffffffffffffffffffffff826100b1565b6100f686836100b1565b95508019841693508086168417925050509392505050565b5f819050919050565b5f61013161012c61012784610082565b61010e565b610082565b9050919050565b5f819050919050565b61014a83610117565b61015e61015682610138565b8484546100bd565b825550505050565b5f5f905090565b610175610166565b610180818484610141565b505050565b5f5b828110156101a65761019b5f82840161016d565b600181019050610187565b505050565b818310156101e2576101bc8261008b565b6101c58461008b565b6101ce8361009f565b8181016101dd83850382610185565b505050505b505050565b680100000000000000008211156102015761020061004b565b5b61020a81610078565b8282556102188382846101ab565b505050565b5f60039050919050565b5f60ff82169050919050565b5f61023e8251610227565b80915050919050565b5f819050919050565b6102598261021d565b67ffffffffffffffff8111156102725761027161004b565b5b61027c81836101e7565b61028583610247565b61028e8361009f565b600183045f5b818110156102cb575f6102a685610233565b6102af81610138565b8092506020870196505050808285015550600181019050610294565b50505050505050565b6107e1806102e15f395ff3fe608060405234801561000f575f5ffd5b506004361061009c575f3560e01c8063959ac48411610064578063959ac48414610156578063a4ece52c14610172578063be1c766b1461017c578063edf0099b1461019a578063fb8cbced146101ca5761009c565b8063335d00c2146100a057806338a067ce146100aa5780634cc82215146100da57806371e5ee5f146100f65780639507d39a14610126575b5f5ffd5b6100a86101e8565b005b6100c460048036038101906100bf91906105fa565b610478565b6040516100d19190610634565b60405180910390f35b6100f460048036038101906100ef91906105fa565b610491565b005b610110600480360381019061010b91906105fa565b6104b2565b60405161011d9190610634565b60405180910390f35b610140600480360381019061013b91906105fa565b6104d1565b60405161014d9190610634565b60405180910390f35b610170600480360381019061016b91906105fa565b6104f5565b005b61017a61051d565b005b610184610543565b6040516101919190610634565b60405180910390f35b6101b460048036038101906101af91906105fa565b61054e565b6040516101c19190610634565b60405180910390f35b6101d261056e565b6040516101df9190610704565b60405180910390f35b5f600567ffffffffffffffff81111561020457610203610724565b5b6040519080825280602002602001820160405280156102325781602001602082028036833780820191505090505b5090505f600267ffffffffffffffff81111561025157610250610724565b5b60405190808252806020026020018201604052801561028457816020015b606081526020019060019003908161026f5790505b5090505f5f90505b815181101561030a57600367ffffffffffffffff8111156102b0576102af610724565b5b6040519080825280602002602001820160405280156102de5781602001602082028036833780820191505090505b508282815181106102f2576102f1610751565b5b6020026020010181905250808060010191505061028c565b506001815f815181106103205761031f610751565b5b60200260200101515f8151811061033a57610339610751565b5b6020026020010181815250506002815f8151811061035b5761035a610751565b5b602002602001015160018151811061037657610375610751565b5b6020026020010181815250506003815f8151811061039757610396610751565b5b60200260200101516002815181106103b2576103b1610751565b5b6020026020010181815250506004816001815181106103d4576103d3610751565b5b60200260200101515f815181106103ee576103ed610751565b5b6020026020010181815250506005816001815181106104105761040f610751565b5b602002602001015160018151811061042b5761042a610751565b5b60200260200101818152505060068160018151811061044d5761044c610751565b5b602002602001015160028151811061046857610467610751565b5b6020026020010181815250505050565b600281600a8110610487575f80fd5b015f915090505481565b5f81815481106104a4576104a3610751565b5b905f5260205f20015f905550565b5f81815481106104c0575f80fd5b905f5260205f20015f915090505481565b5f5f82815481106104e5576104e4610751565b5b905f5260205f2001549050919050565b5f81908060018154018082558091505060019003905f5260205f20015f909190919091505550565b5f80548061052e5761052d61077e565b5b600190038181905f5260205f20015f90559055565b5f5f80549050905090565b6001818154811061055d575f80fd5b905f5260205f20015f915090505481565b60605f8054806020026020016040519081016040528092919081815260200182805480156105b957602002820191905f5260205f20905b8154815260200190600101908083116105a5575b5050505050905090565b5f5ffd5b5f819050919050565b6105d9816105c7565b81146105e3575f5ffd5b50565b5f813590506105f4816105d0565b92915050565b5f6020828403121561060f5761060e6105c3565b5b5f61061c848285016105e6565b91505092915050565b61062e816105c7565b82525050565b5f6020820190506106475f830184610625565b92915050565b5f81519050919050565b5f82825260208201905092915050565b5f819050602082019050919050565b61067f816105c7565b82525050565b5f6106908383610676565b60208301905092915050565b5f602082019050919050565b5f6106b28261064d565b6106bc8185610657565b93506106c783610667565b805f5b838110156106f75781516106de8882610685565b97506106e98361069c565b9250506001810190506106ca565b5085935050505092915050565b5f6020820190508181035f83015261071c81846106a8565b905092915050565b7f4e487b71000000000000000000000000000000000000000000000000000000005f52604160045260245ffd5b7f4e487b71000000000000000000000000000000000000000000000000000000005f52603260045260245ffd5b7f4e487b71000000000000000000000000000000000000000000000000000000005f52603160045260245ffdfea2646970667358221220881f3f068734c3893ab146ea4ffcfcca269db567de52b51f92cbafc45004f3f364736f6c63430008210033","linkReferences":{}},"methodIdentifiers":{"arr(uint256)":"71e5ee5f","arr2(uint256)":"edf0099b","examples()":"335d00c2","get(uint256)":"9507d39a","getArr()":"fb8cbced","getLength()":"be1c766b","myFixedSizeArr(uint256)":"38a067ce","pop()":"a4ece52c","push(uint256)":"959ac484","remove(uint256)":"4cc82215"},"id":23}