{"abi":[{"type":"function","name":"yul_if","inputs":[{"name":"x","type":"uint256","internalType":"uint256"}],"outputs":[{"name":"z","type":"uint256","internalType":"uint256"}],"stateMutability":"pure"},{"type":"function","name":"yul_switch","inputs":[{"name":"x","type":"uint256","internalType":"uint256"}],"outputs":[{"name":"z","type":"uint256","internalType":"uint256"}],"stateMutability":"pure"}],"bytecode":{"object":"0x6080604052348015600e575f5ffd5b5061019a8061001c5f395ff3fe608060405234801561000f575f5ffd5b5060043610610034575f3560e01c8063a917238b14610038578063f42a728d14610068575b5f5ffd5b610052600480360381019061004d9190610111565b610098565b60405161005f919061014b565b60405180910390f35b610082600480360381019061007d9190610111565b6100c6565b60405161008f919061014b565b60405180910390f35b5f81600181146100b257600281146100bb575f91506100c0565b600a91506100c0565b601491505b50919050565b5f600a8210156100d557606390505b919050565b5f5ffd5b5f819050919050565b6100f0816100de565b81146100fa575f5ffd5b50565b5f8135905061010b816100e7565b92915050565b5f60208284031215610126576101256100da565b5b5f610133848285016100fd565b91505092915050565b610145816100de565b82525050565b5f60208201905061015e5f83018461013c565b9291505056fea2646970667358221220cd5ae9d11f79ce320d7f37f8160aece4ce32647c927c5e65753651ecc07257fe64736f6c63430008210033","linkReferences":{}},"methodIdentifiers":{"yul_if(uint256)":"f42a728d","yul_switch(uint256)":"a917238b"},"id":30}