{"abi":[{"type":"function","name":"yul_revert","inputs":[{"name":"x","type":"uint256","internalType":"uint256"}],"outputs":[],"stateMutability":"pure"}],"bytecode":{"object":"0x6080604052348015600e575f5ffd5b5060df80601a5f395ff3fe6080604052348015600e575f5ffd5b50600436106026575f3560e01c8063699f660314602a575b5f5ffd5b60406004803603810190603c91906083565b6042565b005b600a811115604e575f5ffd5b50565b5f5ffd5b5f819050919050565b6065816055565b8114606e575f5ffd5b50565b5f81359050607d81605e565b92915050565b5f6020828403121560955760946051565b5b5f60a0848285016071565b9150509291505056fea2646970667358221220821668aa8a29f8b401f5c2e8e6e600d3f3f8ecb9751b008138d2b0a09cac99c064736f6c63430008210033","linkReferences":{}},"methodIdentifiers":{"yul_revert(uint256)":"699f6603"},"id":29}