{"abi":[{"type":"function","name":"yul_add","inputs":[{"name":"x","type":"uint256","internalType":"uint256"},{"name":"y","type":"uint256","internalType":"uint256"}],"outputs":[{"name":"z","type":"uint256","internalType":"uint256"}],"stateMutability":"pure"},{"type":"function","name":"yul_fixed_point_round","inputs":[{"name":"x","type":"uint256","internalType":"uint256"},{"name":"b","type":"uint256","internalType":"uint256"}],"outputs":[{"name":"z","type":"uint256","internalType":"uint256"}],"stateMutability":"pure"},{"type":"function","name":"yul_mul","inputs":[{"name":"x","type":"uint256","internalType":"uint256"},{"name":"y","type":"uint256","internalType":"uint256"}],"outputs":[{"name":"z","type":"uint256","internalType":"uint256"}],"stateMutability":"pure"}],"bytecode":{"object":"0x6080604052348015600e575f5ffd5b506102018061001c5f395ff3fe608060405234801561000f575f5ffd5b506004361061003f575f3560e01c80631ddb78a7146100435780637ad2c24214610073578063e888b165146100a3575b5f5ffd5b61005d60048036038101906100589190610165565b6100d3565b60405161006a91906101b2565b60405180910390f35b61008d60048036038101906100889190610165565b6100eb565b60405161009a91906101b2565b60405180910390f35b6100bd60048036038101906100b89190610165565b610103565b6040516100ca91906101b2565b60405180910390f35b5f8183019050828110156100e5575f5ffd5b92915050565b5f600282048084019150828383040291505092915050565b5f825f8114610123578284029150828483041461011e575f5ffd5b610127565b5f91505b5092915050565b5f5ffd5b5f819050919050565b61014481610132565b811461014e575f5ffd5b50565b5f8135905061015f8161013b565b92915050565b5f5f6040838503121561017b5761017a61012e565b5b5f61018885828601610151565b925050602061019985828601610151565b9150509250929050565b6101ac81610132565b82525050565b5f6020820190506101c55f8301846101a3565b9291505056fea26469706673582212200cfce6d3cae83d2fb5dd0b2a322910741c2176e3db25c11900701967aed7a58164736f6c63430008210033","linkReferences":{}},"methodIdentifiers":{"yul_add(uint256,uint256)":"1ddb78a7","yul_fixed_point_round(uint256,uint256)":"7ad2c242","yul_mul(uint256,uint256)":"e888b165"},"id":32}