{"abi":[{"type":"function","name":"yul_for_loop","inputs":[],"outputs":[{"name":"z","type":"uint256","internalType":"uint256"}],"stateMutability":"pure"},{"type":"function","name":"yul_while_loop","inputs":[],"outputs":[{"name":"z","type":"uint256","internalType":"uint256"}],"stateMutability":"pure"}],"bytecode":{"object":"0x6080604052348015600e575f5ffd5b506101098061001c5f395ff3fe6080604052348015600e575f5ffd5b50600436106030575f3560e01c8063d22b5850146034578063fd4a8ebb14604e575b5f5ffd5b603a6068565b6040516045919060bc565b60405180910390f35b60546087565b604051605f919060bc565b60405180910390f35b5f5f5b600a811015608357600182019150600181019050606b565b5090565b5f5f5b600581101560a257600181019050600182019150608a565b5090565b5f819050919050565b60b68160a6565b82525050565b5f60208201905060cd5f83018460af565b9291505056fea2646970667358221220b6742655263db9ae9e6158e1b479d7d93be949d97882bacb7a772bdfb7f5cd5864736f6c63430008210033","linkReferences":{}},"methodIdentifiers":{"yul_for_loop()":"d22b5850","yul_while_loop()":"fd4a8ebb"},"id":31}