{"abi":[{"type":"function","name":"yul_let","inputs":[],"outputs":[{"name":"z","type":"uint256","internalType":"uint256"}],"stateMutability":"pure"}],"bytecode":{"object":"0x6080604052348015600e575f5ffd5b5060b380601a5f395ff3fe6080604052348015600e575f5ffd5b50600436106026575f3560e01c8063fa0de16814602a575b5f5ffd5b60306044565b604051603b91906066565b60405180910390f35b5f607b6101c891505090565b5f819050919050565b6060816050565b82525050565b5f60208201905060775f8301846059565b9291505056fea26469706673582212200ee936bdd55f588ecbee120592d5f36cb50b1d8f3aea3294cc9fd379460d7dd864736f6c63430008210033","linkReferences":{}},"methodIdentifiers":{"yul_let()":"fa0de168"},"id":33}