{"abi":[{"type":"function","name":"and","inputs":[{"name":"x","type":"uint256","internalType":"uint256"},{"name":"y","type":"uint256","internalType":"uint256"}],"outputs":[{"name":"","type":"uint256","internalType":"uint256"}],"stateMutability":"pure"},{"type":"function","name":"getFirstNBits","inputs":[{"name":"x","type":"uint256","internalType":"uint256"},{"name":"n","type":"uint256","internalType":"uint256"},{"name":"len","type":"uint256","internalType":"uint256"}],"outputs":[{"name":"","type":"uint256","internalType":"uint256"}],"stateMutability":"pure"},{"type":"function","name":"getLastNBits","inputs":[{"name":"x","type":"uint256","internalType":"uint256"},{"name":"n","type":"uint256","internalType":"uint256"}],"outputs":[{"name":"","type":"uint256","internalType":"uint256"}],"stateMutability":"pure"},{"type":"function","name":"getLastNBitsUsingMod","inputs":[{"name":"x","type":"uint256","internalType":"uint256"},{"name":"n","type":"uint256","internalType":"uint256"}],"outputs":[{"name":"","type":"uint256","internalType":"uint256"}],"stateMutability":"pure"},{"type":"function","name":"mostSignificantBit","inputs":[{"name":"x","type":"uint256","internalType":"uint256"}],"outputs":[{"name":"","type":"uint256","internalType":"uint256"}],"stateMutability":"pure"},{"type":"function","name":"not","inputs":[{"name":"x","type":"uint8","internalType":"uint8"}],"outputs":[{"name":"","type":"uint8","internalType":"uint8"}],"stateMutability":"pure"},{"type":"function","name":"or","inputs":[{"name":"x","type":"uint256","internalType":"uint256"},{"name":"y","type":"uint256","internalType":"uint256"}],"outputs":[{"name":"","type":"uint256","internalType":"uint256"}],"stateMutability":"pure"},{"type":"function","name":"shiftLeft","inputs":[{"name":"x","type":"uint256","internalType":"uint256"},{"name":"bits","type":"uint256","internalType":"uint256"}],"outputs":[{"name":"","type":"uint256","internalType":"uint256"}],"stateMutability":"pure"},{"type":"function","name":"shiftRight","inputs":[{"name":"x","type":"uint256","internalType":"uint256"},{"name":"bits","type":"uint256","internalType":"uint256"}],"outputs":[{"name":"","type":"uint256","internalType":"uint256"}],"stateMutability":"pure"},{"type":"function","name":"xor","inputs":[{"name":"x","type":"uint256","internalType":"uint256"},{"name":"y","type":"uint256","internalType":"uint256"}],"outputs":[{"name":"","type":"uint256","internalType":"uint256"}],"stateMutability":"pure"}],"bytecode":{"object":"0x6080604052348015600e575f5ffd5b5061063c8061001c5f395ff3fe608060405234801561000f575f5ffd5b506004361061009c575f3560e01c8063903b984211610064578063903b9842146101905780639ed41ba1146101c0578063a589d212146101f0578063e6bcbc6514610220578063ecc43a0e146102505761009c565b8063097c2cb2146100a05780630a7d4a39146100d05780631180f8c3146101005780631685fa981461013057806321a9529614610160575b5f5ffd5b6100ba60048036038101906100b59190610398565b610280565b6040516100c791906103e5565b60405180910390f35b6100ea60048036038101906100e591906103fe565b61028c565b6040516100f791906103e5565b60405180910390f35b61011a60048036038101906101159190610484565b6102bc565b60405161012791906104be565b60405180910390f35b61014a60048036038101906101459190610398565b6102c6565b60405161015791906103e5565b60405180910390f35b61017a60048036038101906101759190610398565b6102d3565b60405161018791906103e5565b60405180910390f35b6101aa60048036038101906101a59190610398565b6102f4565b6040516101b791906103e5565b60405180910390f35b6101da60048036038101906101d59190610398565b610300565b6040516101e791906103e5565b60405180910390f35b61020a60048036038101906102059190610398565b61030c565b60405161021791906103e5565b60405180910390f35b61023a600480360381019061023591906104d7565b610319565b60405161024791906103e5565b60405180910390f35b61026a60048036038101906102659190610398565b610348565b60405161027791906103e5565b60405180910390f35b5f818317905092915050565b5f5f838361029a919061052f565b6001856001901b6102ab919061052f565b901b90508085169150509392505050565b5f81199050919050565b5f8183901c905092915050565b5f5f6001836001901b6102e6919061052f565b905080841691505092915050565b5f818316905092915050565b5f818318905092915050565b5f8183901b905092915050565b5f5f5f90505b5f600184901c935083111561033f578061033890610562565b905061031f565b80915050919050565b5f816001901b8361035991906105d6565b905092915050565b5f5ffd5b5f819050919050565b61037781610365565b8114610381575f5ffd5b50565b5f813590506103928161036e565b92915050565b5f5f604083850312156103ae576103ad610361565b5b5f6103bb85828601610384565b92505060206103cc85828601610384565b9150509250929050565b6103df81610365565b82525050565b5f6020820190506103f85f8301846103d6565b92915050565b5f5f5f6060848603121561041557610414610361565b5b5f61042286828701610384565b935050602061043386828701610384565b925050604061044486828701610384565b9150509250925092565b5f60ff82169050919050565b6104638161044e565b811461046d575f5ffd5b50565b5f8135905061047e8161045a565b92915050565b5f6020828403121561049957610498610361565b5b5f6104a684828501610470565b91505092915050565b6104b88161044e565b82525050565b5f6020820190506104d15f8301846104af565b92915050565b5f602082840312156104ec576104eb610361565b5b5f6104f984828501610384565b91505092915050565b7f4e487b71000000000000000000000000000000000000000000000000000000005f52601160045260245ffd5b5f61053982610365565b915061054483610365565b925082820390508181111561055c5761055b610502565b5b92915050565b5f61056c82610365565b91507fffffffffffffffffffffffffffffffffffffffffffffffffffffffffffffffff820361059e5761059d610502565b5b600182019050919050565b7f4e487b71000000000000000000000000000000000000000000000000000000005f52601260045260245ffd5b5f6105e082610365565b91506105eb83610365565b9250826105fb576105fa6105a9565b5b82820690509291505056fea26469706673582212202f330016494935f69536923ac2c240f9fbe7ca934c316aafaee18f6ccaf5a01364736f6c63430008210033","linkReferences":{}},"methodIdentifiers":{"and(uint256,uint256)":"903b9842","getFirstNBits(uint256,uint256,uint256)":"0a7d4a39","getLastNBits(uint256,uint256)":"21a95296","getLastNBitsUsingMod(uint256,uint256)":"ecc43a0e","mostSignificantBit(uint256)":"e6bcbc65","not(uint8)":"1180f8c3","or(uint256,uint256)":"097c2cb2","shiftLeft(uint256,uint256)":"a589d212","shiftRight(uint256,uint256)":"1685fa98","xor(uint256,uint256)":"9ed41ba1"},"id":34}