{"abi":[{"type":"function","name":"setX","inputs":[{"name":"_x","type":"uint256","internalType":"uint256"}],"outputs":[{"name":"","type":"uint256","internalType":"uint256"}],"stateMutability":"nonpayable"},{"type":"function","name":"setXandSendEther","inputs":[{"name":"_x","type":"uint256","internalType":"uint256"}],"outputs":[{"name":"","type":"uint256","internalType":"uint256"},{"name":"","type":"uint256","internalType":"uint256"}],"stateMutability":"payable"},{"type":"function","name":"value","inputs":[],"outputs":[{"name":"","type":"uint256","internalType":"uint256"}],"stateMutability":"view"},{"type":"function","name":"x","inputs":[],"outputs":[{"name":"","type":"uint256","internalType":"uint256"}],"stateMutability":"view"}],"bytecode":{"object":"0x6080604052348015600e575f5ffd5b506102228061001c5f395ff3fe60806040526004361061003e575f3560e01c80630c55699c146100425780633fa4f2451461006c5780634018d9aa14610096578063cdc23076146100d2575b5f5ffd5b34801561004d575f5ffd5b50610056610103565b6040516100639190610153565b60405180910390f35b348015610077575f5ffd5b50610080610108565b60405161008d9190610153565b60405180910390f35b3480156100a1575f5ffd5b506100bc60048036038101906100b7919061019a565b61010e565b6040516100c99190610153565b60405180910390f35b6100ec60048036038101906100e7919061019a565b61011e565b6040516100fa9291906101c5565b60405180910390f35b5f5481565b60015481565b5f815f819055505f549050919050565b5f5f825f81905550346001819055505f5460015491509150915091565b5f819050919050565b61014d8161013b565b82525050565b5f6020820190506101665f830184610144565b92915050565b5f5ffd5b6101798161013b565b8114610183575f5ffd5b50565b5f8135905061019481610170565b92915050565b5f602082840312156101af576101ae61016c565b5b5f6101bc84828501610186565b91505092915050565b5f6040820190506101d85f830185610144565b6101e56020830184610144565b939250505056fea264697066735822122069b92419c8930e1580e54a6e974d85213e08193bd35625eebfdbdeb591aec09664736f6c63430008210033","linkReferences":{}},"methodIdentifiers":{"setX(uint256)":"4018d9aa","setXandSendEther(uint256)":"cdc23076","value()":"3fa4f245","x()":"0c55699c"},"id":36}