{"abi":[{"type":"fallback","stateMutability":"nonpayable"},{"type":"function","name":"test","inputs":[{"name":"target","type":"address","internalType":"address"}],"outputs":[],"stateMutability":"nonpayable"},{"type":"function","name":"val","inputs":[],"outputs":[{"name":"","type":"uint256","internalType":"uint256"}],"stateMutability":"view"}],"bytecode":{"object":"0x6080604052348015600e575f5ffd5b5061028e8061001c5f395ff3fe608060405234801561000f575f5ffd5b5060043610610038575f3560e01c80633c6bb436146100ac578063bb29998e146100ca57610039565b5b3373ffffffffffffffffffffffffffffffffffffffff16633c6bb4366040518163ffffffff1660e01b8152600401602060405180830381865afa158015610082573d5f5f3e3d5ffd5b505050506040513d601f19601f820116820180604052508101906100a69190610180565b5f819055005b6100b46100e6565b6040516100c191906101ba565b60405180910390f35b6100e460048036038101906100df919061022d565b6100eb565b005b5f5481565b8073ffffffffffffffffffffffffffffffffffffffff1663f8a8fd6d6040518163ffffffff1660e01b81526004015f604051808303815f87803b158015610130575f5ffd5b505af1158015610142573d5f5f3e3d5ffd5b5050505050565b5f5ffd5b5f819050919050565b61015f8161014d565b8114610169575f5ffd5b50565b5f8151905061017a81610156565b92915050565b5f6020828403121561019557610194610149565b5b5f6101a28482850161016c565b91505092915050565b6101b48161014d565b82525050565b5f6020820190506101cd5f8301846101ab565b92915050565b5f73ffffffffffffffffffffffffffffffffffffffff82169050919050565b5f6101fc826101d3565b9050919050565b61020c816101f2565b8114610216575f5ffd5b50565b5f8135905061022781610203565b92915050565b5f6020828403121561024257610241610149565b5b5f61024f84828501610219565b9150509291505056fea2646970667358221220f39f74e4856a7c0875d2ae9c1381f298170c52b527719fd7b4a30acf499320db64736f6c63430008210033","linkReferences":{}},"methodIdentifiers":{"test(address)":"bb29998e","val()":"3c6bb436"},"id":49}