{"abi":[{"type":"function","name":"setX","inputs":[{"name":"_callee","type":"address","internalType":"contract Callee"},{"name":"_x","type":"uint256","internalType":"uint256"}],"outputs":[],"stateMutability":"nonpayable"},{"type":"function","name":"setXFromAddress","inputs":[{"name":"_addr","type":"address","internalType":"address"},{"name":"_x","type":"uint256","internalType":"uint256"}],"outputs":[],"stateMutability":"nonpayable"},{"type":"function","name":"setXandSendEther","inputs":[{"name":"_callee","type":"address","internalType":"contract Callee"},{"name":"_x","type":"uint256","internalType":"uint256"}],"outputs":[],"stateMutability":"payable"}],"bytecode":{"object":"0x6080604052348015600e575f5ffd5b506104508061001c5f395ff3fe608060405260043610610033575f3560e01c80634a2ad99f14610037578063cb5870391461005f578063d44abc4214610087575b5f5ffd5b348015610042575f5ffd5b5061005d600480360381019061005891906102cf565b6100a3565b005b34801561006a575f5ffd5b5061008560048036038101906100809190610337565b610124565b005b6100a1600480360381019061009c91906102cf565b6101a7565b005b5f8273ffffffffffffffffffffffffffffffffffffffff16634018d9aa836040518263ffffffff1660e01b81526004016100dd9190610384565b6020604051808303815f875af11580156100f9573d5f5f3e3d5ffd5b505050506040513d601f19601f8201168201806040525081019061011d91906103b1565b9050505050565b5f8290508073ffffffffffffffffffffffffffffffffffffffff16634018d9aa836040518263ffffffff1660e01b81526004016101619190610384565b6020604051808303815f875af115801561017d573d5f5f3e3d5ffd5b505050506040513d601f19601f820116820180604052508101906101a191906103b1565b50505050565b5f5f8373ffffffffffffffffffffffffffffffffffffffff1663cdc2307634856040518363ffffffff1660e01b81526004016101e39190610384565b604080518083038185885af11580156101fe573d5f5f3e3d5ffd5b50505050506040513d601f19601f8201168201806040525081019061022391906103dc565b9150915050505050565b5f5ffd5b5f73ffffffffffffffffffffffffffffffffffffffff82169050919050565b5f61025a82610231565b9050919050565b5f61026b82610250565b9050919050565b61027b81610261565b8114610285575f5ffd5b50565b5f8135905061029681610272565b92915050565b5f819050919050565b6102ae8161029c565b81146102b8575f5ffd5b50565b5f813590506102c9816102a5565b92915050565b5f5f604083850312156102e5576102e461022d565b5b5f6102f285828601610288565b9250506020610303858286016102bb565b9150509250929050565b61031681610250565b8114610320575f5ffd5b50565b5f813590506103318161030d565b92915050565b5f5f6040838503121561034d5761034c61022d565b5b5f61035a85828601610323565b925050602061036b858286016102bb565b9150509250929050565b61037e8161029c565b82525050565b5f6020820190506103975f830184610375565b92915050565b5f815190506103ab816102a5565b92915050565b5f602082840312156103c6576103c561022d565b5b5f6103d38482850161039d565b91505092915050565b5f5f604083850312156103f2576103f161022d565b5b5f6103ff8582860161039d565b92505060206104108582860161039d565b915050925092905056fea26469706673582212205dd567eb5c29267e70367ffa003051fc4b21a15b71e24922f292de722b0addd764736f6c63430008210033","linkReferences":{}},"methodIdentifiers":{"setX(address,uint256)":"4a2ad99f","setXFromAddress(address,uint256)":"cb587039","setXandSendEther(address,uint256)":"d44abc42"},"id":36}