{"abi":[{"type":"function","name":"cars","inputs":[{"name":"","type":"uint256","internalType":"uint256"}],"outputs":[{"name":"","type":"address","internalType":"contract Car"}],"stateMutability":"view"},{"type":"function","name":"create","inputs":[{"name":"_owner","type":"address","internalType":"address"},{"name":"_model","type":"string","internalType":"string"}],"outputs":[],"stateMutability":"nonpayable"},{"type":"function","name":"create2","inputs":[{"name":"_owner","type":"address","internalType":"address"},{"name":"_model","type":"string","internalType":"string"},{"name":"_salt","type":"bytes32","internalType":"bytes32"}],"outputs":[],"stateMutability":"nonpayable"},{"type":"function","name":"create2AndSendEther","inputs":[{"name":"_owner","type":"address","internalType":"address"},{"name":"_model","type":"string","internalType":"string"},{"name":"_salt","type":"bytes32","internalType":"bytes32"}],"outputs":[],"stateMutability":"payable"},{"type":"function","name":"createAndSendEther","inputs":[{"name":"_owner","type":"address","internalType":"address"},{"name":"_model","type":"string","internalType":"string"}],"outputs":[],"stateMutability":"payable"},{"type":"function","name":"getCar","inputs":[{"name":"_index","type":"uint256","internalType":"uint256"}],"outputs":[{"name":"owner","type":"address","internalType":"address"},{"name":"model","type":"string","internalType":"string"},{"name":"carAddr","type":"address","internalType":"address"},{"name":"balance","type":"uint256","internalType":"uint256"}],"stateMutability":"view"}],"bytecode":{"object":"0x6080604052348015600e575f5ffd5b506114378061001c5f395ff3fe608060405260043610610054575f3560e01c80633d4b3015146100585780635e8be19014610074578063a15ab08d146100b3578063ace276ee146100db578063c33cd61514610103578063f7746e361461011f575b5f5ffd5b610072600480360381019061006d91906107ac565b61015b565b005b34801561007f575f5ffd5b5061009a6004803603810190610095919061084b565b6101ff565b6040516100aa94939291906108f4565b60405180910390f35b3480156100be575f5ffd5b506100d960048036038101906100d4919061093e565b6103b4565b005b3480156100e6575f5ffd5b5061010160048036038101906100fc91906107ac565b61044e565b005b61011d6004803603810190610118919061093e565b6104ee565b005b34801561012a575f5ffd5b506101456004803603810190610140919061084b565b61058b565b60405161015291906109f3565b60405180910390f35b5f348290858560405161016d906105c5565b610178929190610a0c565b82906040518091039083f59050905080158015610197573d5f5f3e3d5ffd5b5090505f81908060018154018082558091505060019003905f5260205f20015f9091909190916101000a81548173ffffffffffffffffffffffffffffffffffffffff021916908373ffffffffffffffffffffffffffffffffffffffff16021790555050505050565b5f60605f5f5f5f868154811061021857610217610a3a565b5b905f5260205f20015f9054906101000a900473ffffffffffffffffffffffffffffffffffffffff1690508073ffffffffffffffffffffffffffffffffffffffff16638da5cb5b6040518163ffffffff1660e01b8152600401602060405180830381865afa15801561028b573d5f5f3e3d5ffd5b505050506040513d601f19601f820116820180604052508101906102af9190610a7b565b8173ffffffffffffffffffffffffffffffffffffffff16630ad9d0526040518163ffffffff1660e01b81526004015f60405180830381865afa1580156102f7573d5f5f3e3d5ffd5b505050506040513d5f823e3d601f19601f8201168201806040525081019061031f9190610b14565b8273ffffffffffffffffffffffffffffffffffffffff1663514fa6766040518163ffffffff1660e01b8152600401602060405180830381865afa158015610368573d5f5f3e3d5ffd5b505050506040513d601f19601f8201168201806040525081019061038c9190610a7b565b8373ffffffffffffffffffffffffffffffffffffffff16319450945094509450509193509193565b5f82826040516103c3906105c5565b6103ce929190610a0c565b604051809103905ff0801580156103e7573d5f5f3e3d5ffd5b5090505f81908060018154018082558091505060019003905f5260205f20015f9091909190916101000a81548173ffffffffffffffffffffffffffffffffffffffff021916908373ffffffffffffffffffffffffffffffffffffffff160217905550505050565b5f81848460405161045e906105c5565b610469929190610a0c565b8190604051809103905ff5905080158015610486573d5f5f3e3d5ffd5b5090505f81908060018154018082558091505060019003905f5260205f20015f9091909190916101000a81548173ffffffffffffffffffffffffffffffffffffffff021916908373ffffffffffffffffffffffffffffffffffffffff16021790555050505050565b5f3483836040516104fe906105c5565b610509929190610a0c565b6040518091039082f0905080158015610524573d5f5f3e3d5ffd5b5090505f81908060018154018082558091505060019003905f5260205f20015f9091909190916101000a81548173ffffffffffffffffffffffffffffffffffffffff021916908373ffffffffffffffffffffffffffffffffffffffff160217905550505050565b5f8181548110610599575f80fd5b905f5260205f20015f915054906101000a900473ffffffffffffffffffffffffffffffffffffffff1681565b6108a680610b5c83390190565b5f604051905090565b5f5ffd5b5f5ffd5b5f73ffffffffffffffffffffffffffffffffffffffff82169050919050565b5f61060c826105e3565b9050919050565b61061c81610602565b8114610626575f5ffd5b50565b5f8135905061063781610613565b92915050565b5f5ffd5b5f5ffd5b5f601f19601f8301169050919050565b7f4e487b71000000000000000000000000000000000000000000000000000000005f52604160045260245ffd5b61068b82610645565b810181811067ffffffffffffffff821117156106aa576106a9610655565b5b80604052505050565b5f6106bc6105d2565b90506106c88282610682565b919050565b5f67ffffffffffffffff8211156106e7576106e6610655565b5b6106f082610645565b9050602081019050919050565b828183375f83830152505050565b5f61071d610718846106cd565b6106b3565b90508281526020810184848401111561073957610738610641565b5b6107448482856106fd565b509392505050565b5f82601f8301126107605761075f61063d565b5b813561077084826020860161070b565b91505092915050565b5f819050919050565b61078b81610779565b8114610795575f5ffd5b50565b5f813590506107a681610782565b92915050565b5f5f5f606084860312156107c3576107c26105db565b5b5f6107d086828701610629565b935050602084013567ffffffffffffffff8111156107f1576107f06105df565b5b6107fd8682870161074c565b925050604061080e86828701610798565b9150509250925092565b5f819050919050565b61082a81610818565b8114610834575f5ffd5b50565b5f8135905061084581610821565b92915050565b5f602082840312156108605761085f6105db565b5b5f61086d84828501610837565b91505092915050565b61087f81610602565b82525050565b5f81519050919050565b5f82825260208201905092915050565b8281835e5f83830152505050565b5f6108b782610885565b6108c1818561088f565b93506108d181856020860161089f565b6108da81610645565b840191505092915050565b6108ee81610818565b82525050565b5f6080820190506109075f830187610876565b818103602083015261091981866108ad565b90506109286040830185610876565b61093560608301846108e5565b95945050505050565b5f5f60408385031215610954576109536105db565b5b5f61096185828601610629565b925050602083013567ffffffffffffffff811115610982576109816105df565b5b61098e8582860161074c565b9150509250929050565b5f819050919050565b5f6109bb6109b66109b1846105e3565b610998565b6105e3565b9050919050565b5f6109cc826109a1565b9050919050565b5f6109dd826109c2565b9050919050565b6109ed816109d3565b82525050565b5f602082019050610a065f8301846109e4565b92915050565b5f604082019050610a1f5f830185610876565b8181036020830152610a3181846108ad565b90509392505050565b7f4e487b71000000000000000000000000000000000000000000000000000000005f52603260045260245ffd5b5f81519050610a7581610613565b92915050565b5f60208284031215610a9057610a8f6105db565b5b5f610a9d84828501610a67565b91505092915050565b5f610ab8610ab3846106cd565b6106b3565b905082815260208101848484011115610ad457610ad3610641565b5b610adf84828561089f565b509392505050565b5f82601f830112610afb57610afa61063d565b5b8151610b0b848260208601610aa6565b91505092915050565b5f60208284031215610b2957610b286105db565b5b5f82015167ffffffffffffffff811115610b4657610b456105df565b5b610b5284828501610ae7565b9150509291505056fe60806040526040516108a63803806108a683398181016040528101906100259190610262565b815f5f6101000a81548173ffffffffffffffffffffffffffffffffffffffff021916908373ffffffffffffffffffffffffffffffffffffffff160217905550806001908161007391906104dd565b503060025f6101000a81548173ffffffffffffffffffffffffffffffffffffffff021916908373ffffffffffffffffffffffffffffffffffffffff16021790555050506105ac565b5f604051905090565b5f5ffd5b5f5ffd5b5f73ffffffffffffffffffffffffffffffffffffffff82169050919050565b5f6100f5826100cc565b9050919050565b610105816100eb565b811461010f575f5ffd5b50565b5f81519050610120816100fc565b92915050565b5f5ffd5b5f5ffd5b5f601f19601f8301169050919050565b7f4e487b71000000000000000000000000000000000000000000000000000000005f52604160045260245ffd5b6101748261012e565b810181811067ffffffffffffffff821117156101935761019261013e565b5b80604052505050565b5f6101a56100bb565b90506101b1828261016b565b919050565b5f67ffffffffffffffff8211156101d0576101cf61013e565b5b6101d98261012e565b9050602081019050919050565b8281835e5f83830152505050565b5f610206610201846101b6565b61019c565b9050828152602081018484840111156102225761022161012a565b5b61022d8482856101e6565b509392505050565b5f82601f83011261024957610248610126565b5b81516102598482602086016101f4565b91505092915050565b5f5f60408385031215610278576102776100c4565b5b5f61028585828601610112565b925050602083015167ffffffffffffffff8111156102a6576102a56100c8565b5b6102b285828601610235565b9150509250929050565b5f81519050919050565b7f4e487b71000000000000000000000000000000000000000000000000000000005f52602260045260245ffd5b5f600282049050600182168061030a57607f821691505b60208210810361031d5761031c6102c6565b5b50919050565b5f819050815f5260205f209050919050565b5f6020601f8301049050919050565b5f82821b905092915050565b5f6008830261037f7fffffffffffffffffffffffffffffffffffffffffffffffffffffffffffffffff82610344565b6103898683610344565b95508019841693508086168417925050509392505050565b5f819050919050565b5f819050919050565b5f6103cd6103c86103c3846103a1565b6103aa565b6103a1565b9050919050565b5f819050919050565b6103e6836103b3565b6103fa6103f2826103d4565b848454610350565b825550505050565b5f5f905090565b610411610402565b61041c8184846103dd565b505050565b5f5b82811015610442576104375f828401610409565b600181019050610423565b505050565b601f82111561049557828211156104945761046181610323565b61046a83610335565b61047385610335565b6020861015610480575f90505b80830161048f82840382610421565b505050505b5b505050565b5f82821c905092915050565b5f6104b55f198460080261049a565b1980831691505092915050565b5f6104cd83836104a6565b9150826002028217905092915050565b6104e6826102bc565b67ffffffffffffffff8111156104ff576104fe61013e565b5b61050982546102f3565b610514828285610447565b5f60209050601f831160018114610545575f8415610533578287015190505b61053d85826104c2565b8655506105a4565b601f19841661055386610323565b5f5b8281101561057a57848901518255600182019150602085019450602081019050610555565b868310156105975784890151610593601f8916826104a6565b8355505b6001600288020188555050505b505050505050565b6102ed806105b95f395ff3fe608060405234801561000f575f5ffd5b506004361061003f575f3560e01c80630ad9d05214610043578063514fa676146100615780638da5cb5b1461007f575b5f5ffd5b61004b61009d565b60405161005891906101e2565b60405180910390f35b610069610129565b6040516100769190610241565b60405180910390f35b61008761014e565b6040516100949190610241565b60405180910390f35b600180546100aa90610287565b80601f01602080910402602001604051908101604052809291908181526020018280546100d690610287565b80156101215780601f106100f857610100808354040283529160200191610121565b820191905f5260205f20905b81548152906001019060200180831161010457829003601f168201915b505050505081565b60025f9054906101000a900473ffffffffffffffffffffffffffffffffffffffff1681565b5f5f9054906101000a900473ffffffffffffffffffffffffffffffffffffffff1681565b5f81519050919050565b5f82825260208201905092915050565b8281835e5f83830152505050565b5f601f19601f8301169050919050565b5f6101b482610172565b6101be818561017c565b93506101ce81856020860161018c565b6101d78161019a565b840191505092915050565b5f6020820190508181035f8301526101fa81846101aa565b905092915050565b5f73ffffffffffffffffffffffffffffffffffffffff82169050919050565b5f61022b82610202565b9050919050565b61023b81610221565b82525050565b5f6020820190506102545f830184610232565b92915050565b7f4e487b71000000000000000000000000000000000000000000000000000000005f52602260045260245ffd5b5f600282049050600182168061029e57607f821691505b6020821081036102b1576102b061025a565b5b5091905056fea2646970667358221220c93061ee9235c534433ac93abf03e879dcf7b79e9230894134564e18b34dc8af64736f6c63430008210033a26469706673582212207bc30bec698aed2d01895d3bbe54163f41828baa74d9f4e9f195bb5ec2933f5864736f6c63430008210033","linkReferences":{}},"methodIdentifiers":{"cars(uint256)":"f7746e36","create(address,string)":"a15ab08d","create2(address,string,bytes32)":"ace276ee","create2AndSendEther(address,string,bytes32)":"3d4b3015","createAndSendEther(address,string)":"c33cd615","getCar(uint256)":"5e8be190"},"id":73}