{"abi":[{"type":"function","name":"externalFunc","inputs":[],"outputs":[{"name":"","type":"string","internalType":"string"}],"stateMutability":"pure"},{"type":"function","name":"publicFunc","inputs":[],"outputs":[{"name":"","type":"string","internalType":"string"}],"stateMutability":"pure"},{"type":"function","name":"publicVar","inputs":[],"outputs":[{"name":"","type":"string","internalType":"string"}],"stateMutability":"view"},{"type":"function","name":"testInternalFunc","inputs":[],"outputs":[{"name":"","type":"string","internalType":"string"}],"stateMutability":"pure"},{"type":"function","name":"testPrivateFunc","inputs":[],"outputs":[{"name":"","type":"string","internalType":"string"}],"stateMutability":"pure"}],"bytecode":{"object":"0x60806040526040518060400160405280601381526020017f6d792070726976617465207661726961626c65000000000000000000000000008152505f90816100479190610331565b506040518060400160405280601481526020017f6d7920696e7465726e616c207661726961626c650000000000000000000000008152506001908161008c9190610331565b506040518060400160405280601281526020017f6d79207075626c6963207661726961626c650000000000000000000000000000815250600290816100d19190610331565b503480156100dd575f5ffd5b50610400565b5f81519050919050565b7f4e487b71000000000000000000000000000000000000000000000000000000005f52604160045260245ffd5b7f4e487b71000000000000000000000000000000000000000000000000000000005f52602260045260245ffd5b5f600282049050600182168061015e57607f821691505b6020821081036101715761017061011a565b5b50919050565b5f819050815f5260205f209050919050565b5f6020601f8301049050919050565b5f82821b905092915050565b5f600883026101d37fffffffffffffffffffffffffffffffffffffffffffffffffffffffffffffffff82610198565b6101dd8683610198565b95508019841693508086168417925050509392505050565b5f819050919050565b5f819050919050565b5f61022161021c610217846101f5565b6101fe565b6101f5565b9050919050565b5f819050919050565b61023a83610207565b61024e61024682610228565b8484546101a4565b825550505050565b5f5f905090565b610265610256565b610270818484610231565b505050565b5f5b828110156102965761028b5f82840161025d565b600181019050610277565b505050565b601f8211156102e957828211156102e8576102b581610177565b6102be83610189565b6102c785610189565b60208610156102d4575f90505b8083016102e382840382610275565b505050505b5b505050565b5f82821c905092915050565b5f6103095f19846008026102ee565b1980831691505092915050565b5f61032183836102fa565b9150826002028217905092915050565b61033a826100e3565b67ffffffffffffffff811115610353576103526100ed565b5b61035d8254610147565b61036882828561029b565b5f60209050601f831160018114610399575f8415610387578287015190505b6103918582610316565b8655506103f8565b601f1984166103a786610177565b5f5b828110156103ce578489015182556001820191506020850194506020810190506103a9565b868310156103eb57848901516103e7601f8916826102fa565b8355505b6001600288020188555050505b505050505050565b6103b08061040d5f395ff3fe608060405234801561000f575f5ffd5b5060043610610055575f3560e01c80630eb13f87146100595780631151fad81461007757806342b148aa146100955780634b73383f146100b3578063e8e46c41146100d1575b5f5ffd5b6100616100ef565b60405161006e91906102fd565b60405180910390f35b61007f6100fe565b60405161008c91906102fd565b60405180910390f35b61009d61018a565b6040516100aa91906102fd565b60405180910390f35b6100bb6101c7565b6040516100c891906102fd565b60405180910390f35b6100d9610204565b6040516100e691906102fd565b60405180910390f35b60606100f9610213565b905090565b6002805461010b9061034a565b80601f01602080910402602001604051908101604052809291908181526020018280546101379061034a565b80156101825780601f1061015957610100808354040283529160200191610182565b820191905f5260205f20905b81548152906001019060200180831161016557829003601f168201915b505050505081565b60606040518060400160405280601881526020017f65787465726e616c2066756e6374696f6e2063616c6c65640000000000000000815250905090565b60606040518060400160405280601681526020017f7075626c69632066756e6374696f6e2063616c6c656400000000000000000000815250905090565b606061020e610250565b905090565b60606040518060400160405280601781526020017f707269766174652066756e6374696f6e2063616c6c6564000000000000000000815250905090565b60606040518060400160405280601881526020017f696e7465726e616c2066756e6374696f6e2063616c6c65640000000000000000815250905090565b5f81519050919050565b5f82825260208201905092915050565b8281835e5f83830152505050565b5f601f19601f8301169050919050565b5f6102cf8261028d565b6102d98185610297565b93506102e98185602086016102a7565b6102f2816102b5565b840191505092915050565b5f6020820190508181035f83015261031581846102c5565b905092915050565b7f4e487b71000000000000000000000000000000000000000000000000000000005f52602260045260245ffd5b5f600282049050600182168061036157607f821691505b6020821081036103745761037361031d565b5b5091905056fea2646970667358221220985fbd9ac116ad0877dbfac51ce0ef8404f2587ee30f6c00d552081ebe6616f564736f6c63430008210033","linkReferences":{}},"methodIdentifiers":{"externalFunc()":"42b148aa","publicFunc()":"4b73383f","publicVar()":"1151fad8","testInternalFunc()":"e8e46c41","testPrivateFunc()":"0eb13f87"},"id":90}