{"abi":[{"type":"function","name":"MY_ADDRESS","inputs":[],"outputs":[{"name":"","type":"address","internalType":"address"}],"stateMutability":"view"},{"type":"function","name":"MY_UINT","inputs":[],"outputs":[{"name":"","type":"uint256","internalType":"uint256"}],"stateMutability":"view"}],"bytecode":{"object":"0x6080604052348015600e575f5ffd5b506101508061001c5f395ff3fe608060405234801561000f575f5ffd5b5060043610610034575f3560e01c80631f6649e3146100385780633a756cec14610056575b5f5ffd5b610040610074565b60405161004d91906100a9565b60405180910390f35b61005e610079565b60405161006b9190610101565b60405180910390f35b607b81565b73777788889999aaaabbbbccccddddeeeeffffcccc81565b5f819050919050565b6100a381610091565b82525050565b5f6020820190506100bc5f83018461009a565b92915050565b5f73ffffffffffffffffffffffffffffffffffffffff82169050919050565b5f6100eb826100c2565b9050919050565b6100fb816100e1565b82525050565b5f6020820190506101145f8301846100f2565b9291505056fea2646970667358221220788aec804db1dff7f9acdb56a9837d4c7f3849b04ae3e7e52dca3940f7e79f2164736f6c63430008210033","linkReferences":{}},"methodIdentifiers":{"MY_ADDRESS()":"3a756cec","MY_UINT()":"1f6649e3"},"id":26}