{"abi":[{"type":"function","name":"arr","inputs":[{"name":"","type":"uint256","internalType":"uint256"}],"outputs":[{"name":"","type":"uint256","internalType":"uint256"}],"stateMutability":"view"},{"type":"function","name":"f","inputs":[],"outputs":[],"stateMutability":"nonpayable"},{"type":"function","name":"g","inputs":[{"name":"_arr","type":"uint256[]","internalType":"uint256[]"}],"outputs":[{"name":"","type":"uint256[]","internalType":"uint256[]"}],"stateMutability":"nonpayable"},{"type":"function","name":"h","inputs":[{"name":"_arr","type":"uint256[]","internalType":"uint256[]"}],"outputs":[],"stateMutability":"nonpayable"}],"bytecode":{"object":"0x6080604052348015600e575f5ffd5b506105358061001c5f395ff3fe608060405234801561000f575f5ffd5b506004361061004a575f3560e01c806326121ff01461004e57806340dcbb081461005857806371e5ee5f14610074578063baf71609146100a4575b5f5ffd5b6100566100d4565b005b610072600480360381019061006d91906101c8565b610127565b005b61008e60048036038101906100899190610246565b61012b565b60405161009b9190610280565b60405180910390f35b6100be60048036038101906100b991906103e1565b61014a565b6040516100cb91906104df565b60405180910390f35b6100f15f600160025f600181526020019081526020015f20610151565b5f60025f600181526020019081526020015f2090505f60405180602001604052805f8152509050805f0151825f01819055505050565b5050565b5f8181548110610139575f80fd5b905f5260205f20015f915090505481565b6060919050565b505050565b5f604051905090565b5f5ffd5b5f5ffd5b5f5ffd5b5f5ffd5b5f5ffd5b5f5f83601f84011261018857610187610167565b5b8235905067ffffffffffffffff8111156101a5576101a461016b565b5b6020830191508360208202830111156101c1576101c061016f565b5b9250929050565b5f5f602083850312156101de576101dd61015f565b5b5f83013567ffffffffffffffff8111156101fb576101fa610163565b5b61020785828601610173565b92509250509250929050565b5f819050919050565b61022581610213565b811461022f575f5ffd5b50565b5f813590506102408161021c565b92915050565b5f6020828403121561025b5761025a61015f565b5b5f61026884828501610232565b91505092915050565b61027a81610213565b82525050565b5f6020820190506102935f830184610271565b92915050565b5f601f19601f8301169050919050565b7f4e487b71000000000000000000000000000000000000000000000000000000005f52604160045260245ffd5b6102df82610299565b810181811067ffffffffffffffff821117156102fe576102fd6102a9565b5b80604052505050565b5f610310610156565b905061031c82826102d6565b919050565b5f67ffffffffffffffff82111561033b5761033a6102a9565b5b602082029050602081019050919050565b5f61035e61035984610321565b610307565b905080838252602082019050602084028301858111156103815761038061016f565b5b835b818110156103aa57806103968882610232565b845260208401935050602081019050610383565b5050509392505050565b5f82601f8301126103c8576103c7610167565b5b81356103d884826020860161034c565b91505092915050565b5f602082840312156103f6576103f561015f565b5b5f82013567ffffffffffffffff81111561041357610412610163565b5b61041f848285016103b4565b91505092915050565b5f81519050919050565b5f82825260208201905092915050565b5f819050602082019050919050565b61045a81610213565b82525050565b5f61046b8383610451565b60208301905092915050565b5f602082019050919050565b5f61048d82610428565b6104978185610432565b93506104a283610442565b805f5b838110156104d25781516104b98882610460565b97506104c483610477565b9250506001810190506104a5565b5085935050505092915050565b5f6020820190508181035f8301526104f78184610483565b90509291505056fea2646970667358221220d16ba222b9f44f2efcecaf55f3911d42d56608dc1e641d986bd2d6dd4c1c81dc64736f6c63430008210033","linkReferences":{}},"methodIdentifiers":{"arr(uint256)":"71e5ee5f","f()":"26121ff0","g(uint256[])":"baf71609","h(uint256[])":"40dcbb08"},"id":28}