{"abi":[{"type":"function","name":"cancel","inputs":[],"outputs":[],"stateMutability":"nonpayable"},{"type":"function","name":"get","inputs":[],"outputs":[{"name":"","type":"uint8","internalType":"enum Enum.Status"}],"stateMutability":"view"},{"type":"function","name":"reset","inputs":[],"outputs":[],"stateMutability":"nonpayable"},{"type":"function","name":"set","inputs":[{"name":"_status","type":"uint8","internalType":"enum Enum.Status"}],"outputs":[],"stateMutability":"nonpayable"},{"type":"function","name":"status","inputs":[],"outputs":[{"name":"","type":"uint8","internalType":"enum Enum.Status"}],"stateMutability":"view"}],"bytecode":{"object":"0x6080604052348015600e575f5ffd5b506102668061001c5f395ff3fe608060405234801561000f575f5ffd5b5060043610610055575f3560e01c8063200d2ed21461005957806324b8ba5f146100775780636d4ce63c14610093578063d826f88f146100b1578063ea8a1af0146100bb575b5f5ffd5b6100616100c5565b60405161006e91906101c5565b60405180910390f35b610091600480360381019061008c9190610205565b6100d6565b005b61009b610101565b6040516100a891906101c5565b60405180910390f35b6100b9610115565b005b6100c3610127565b005b5f5f9054906101000a900460ff1681565b805f5f6101000a81548160ff021916908360048111156100f9576100f8610152565b5b021790555050565b5f5f5f9054906101000a900460ff16905090565b5f5f6101000a81549060ff0219169055565b60045f5f6101000a81548160ff0219169083600481111561014b5761014a610152565b5b0217905550565b7f4e487b71000000000000000000000000000000000000000000000000000000005f52602160045260245ffd5b600581106101905761018f610152565b5b50565b5f8190506101a08261017f565b919050565b5f6101af82610193565b9050919050565b6101bf816101a5565b82525050565b5f6020820190506101d85f8301846101b6565b92915050565b5f5ffd5b600581106101ee575f5ffd5b50565b5f813590506101ff816101e2565b92915050565b5f6020828403121561021a576102196101de565b5b5f610227848285016101f1565b9150509291505056fea264697066735822122075f678ed5d6eb93fcf6b1178b82bf5bc08b6233b053eff6bb07a552e5d2d9be564736f6c63430008210033","linkReferences":{}},"methodIdentifiers":{"cancel()":"ea8a1af0","get()":"6d4ce63c","reset()":"d826f88f","set(uint8)":"24b8ba5f","status()":"200d2ed2"},"id":30}