{"abi":[{"type":"function","name":"status","inputs":[],"outputs":[{"name":"","type":"uint8","internalType":"enum Status"}],"stateMutability":"view"}],"bytecode":{"object":"0x6080604052348015600e575f5ffd5b5061010c8061001c5f395ff3fe6080604052348015600e575f5ffd5b50600436106026575f3560e01c8063200d2ed214602a575b5f5ffd5b60306044565b604051603b919060bf565b60405180910390f35b5f5f9054906101000a900460ff1681565b7f4e487b71000000000000000000000000000000000000000000000000000000005f52602160045260245ffd5b60058110609057608f6055565b5b50565b5f819050609e826082565b919050565b5f60ab826093565b9050919050565b60b98160a3565b82525050565b5f60208201905060d05f83018460b2565b9291505056fea2646970667358221220b9b7f38b8707231ab4ee7b2352a8083a61d08062bcaf3ab70ce759cf457a4fc064736f6c63430008210033","linkReferences":{}},"methodIdentifiers":{"status()":"200d2ed2"},"id":26}