{"abi":[{"type":"function","name":"set","inputs":[{"name":"_status","type":"uint8","internalType":"enum Status"}],"outputs":[],"stateMutability":"nonpayable"},{"type":"function","name":"status","inputs":[],"outputs":[{"name":"","type":"uint8","internalType":"enum Status"}],"stateMutability":"view"}],"bytecode":{"object":"0x6080604052348015600e575f5ffd5b506101c28061001c5f395ff3fe608060405234801561000f575f5ffd5b5060043610610034575f3560e01c8063200d2ed21461003857806324b8ba5f14610056575b5f5ffd5b610040610072565b60405161004d9190610121565b60405180910390f35b610070600480360381019061006b9190610161565b610083565b005b5f5f9054906101000a900460ff1681565b805f5f6101000a81548160ff021916908360048111156100a6576100a56100ae565b5b021790555050565b7f4e487b71000000000000000000000000000000000000000000000000000000005f52602160045260245ffd5b600581106100ec576100eb6100ae565b5b50565b5f8190506100fc826100db565b919050565b5f61010b826100ef565b9050919050565b61011b81610101565b82525050565b5f6020820190506101345f830184610112565b92915050565b5f5ffd5b6005811061014a575f5ffd5b50565b5f8135905061015b8161013e565b92915050565b5f602082840312156101765761017561013a565b5b5f6101838482850161014d565b9150509291505056fea26469706673582212204ccef94937abc36acefaefeadc1c87621ed981ad257e246166eeb3f50c1440a164736f6c63430008210033","linkReferences":{}},"methodIdentifiers":{"set(uint8)":"24b8ba5f","status()":"200d2ed2"},"id":25}