{"abi":[{"type":"function","name":"isOneEther","inputs":[],"outputs":[{"name":"","type":"bool","internalType":"bool"}],"stateMutability":"view"},{"type":"function","name":"isOneGwei","inputs":[],"outputs":[{"name":"","type":"bool","internalType":"bool"}],"stateMutability":"view"},{"type":"function","name":"isOneWei","inputs":[],"outputs":[{"name":"","type":"bool","internalType":"bool"}],"stateMutability":"view"},{"type":"function","name":"oneEther","inputs":[],"outputs":[{"name":"","type":"uint256","internalType":"uint256"}],"stateMutability":"view"},{"type":"function","name":"oneGwei","inputs":[],"outputs":[{"name":"","type":"uint256","internalType":"uint256"}],"stateMutability":"view"},{"type":"function","name":"oneWei","inputs":[],"outputs":[{"name":"","type":"uint256","internalType":"uint256"}],"stateMutability":"view"}],"bytecode":{"object":"0x608060405260015f5560015f541460015f6101000a81548160ff021916908315150217905550633b9aca00600255633b9aca006002541460035f6101000a81548160ff021916908315150217905550670de0b6b3a7640000600455670de0b6b3a76400006004541460055f6101000a81548160ff0219169083151502179055503480156089575f5ffd5b506101f9806100975f395ff3fe608060405234801561000f575f5ffd5b5060043610610060575f3560e01c806328dc556f14610064578063481499c7146100825780634fb2e0be146100a05780638e50b65c146100be578063cf0f5d29146100dc578063d297a89f146100fa575b5f5ffd5b61006c610118565b6040516100799190610179565b60405180910390f35b61008a61012a565b6040516100979190610179565b60405180910390f35b6100a861013c565b6040516100b591906101aa565b60405180910390f35b6100c6610141565b6040516100d391906101aa565b60405180910390f35b6100e4610147565b6040516100f19190610179565b60405180910390f35b610102610159565b60405161010f91906101aa565b60405180910390f35b60015f9054906101000a900460ff1681565b60035f9054906101000a900460ff1681565b5f5481565b60025481565b60055f9054906101000a900460ff1681565b60045481565b5f8115159050919050565b6101738161015f565b82525050565b5f60208201905061018c5f83018461016a565b92915050565b5f819050919050565b6101a481610192565b82525050565b5f6020820190506101bd5f83018461019b565b9291505056fea2646970667358221220db70e5fd2f9d14eed19695c96337a83ef9476a874a5bc6e6de7a3d2280270eef64736f6c63430008210033","linkReferences":{}},"methodIdentifiers":{"isOneEther()":"cf0f5d29","isOneGwei()":"481499c7","isOneWei()":"28dc556f","oneEther()":"d297a89f","oneGwei()":"8e50b65c","oneWei()":"4fb2e0be"},"id":34}