{"abi":[{"type":"function","name":"subscribe","inputs":[],"outputs":[],"stateMutability":"nonpayable"},{"type":"function","name":"subscriberList","inputs":[{"name":"","type":"uint256","internalType":"uint256"}],"outputs":[{"name":"","type":"address","internalType":"address"}],"stateMutability":"view"},{"type":"function","name":"subscribers","inputs":[{"name":"","type":"address","internalType":"address"}],"outputs":[{"name":"","type":"bool","internalType":"bool"}],"stateMutability":"view"},{"type":"function","name":"transfer","inputs":[{"name":"to","type":"address","internalType":"address"},{"name":"value","type":"uint256","internalType":"uint256"}],"outputs":[],"stateMutability":"nonpayable"},{"type":"function","name":"unsubscribe","inputs":[],"outputs":[],"stateMutability":"nonpayable"},{"type":"event","name":"LogTransfer","inputs":[{"name":"from","type":"address","indexed":true,"internalType":"address"},{"name":"to","type":"address","indexed":true,"internalType":"address"},{"name":"value","type":"uint256","indexed":false,"internalType":"uint256"}],"anonymous":false}],"bytecode":{"object":"0x6080604052348015600e575f5ffd5b506109b28061001c5f395ff3fe608060405234801561000f575f5ffd5b5060043610610055575f3560e01c80635745ae281461005957806383c2eaba146100895780638f449a05146100b9578063a9059cbb146100c3578063fcae4484146100df575b5f5ffd5b610073600480360381019061006e9190610663565b6100e9565b60405161008091906106a8565b60405180910390f35b6100a3600480360381019061009e91906106f4565b610105565b6040516100b0919061072e565b60405180910390f35b6100c1610140565b005b6100dd60048036038101906100d89190610747565b61027f565b005b6100e76103ad565b005b5f602052805f5260405f205f915054906101000a900460ff1681565b60018181548110610114575f80fd5b905f5260205f20015f915054906101000a900473ffffffffffffffffffffffffffffffffffffffff1681565b5f5f3373ffffffffffffffffffffffffffffffffffffffff1673ffffffffffffffffffffffffffffffffffffffff1681526020019081526020015f205f9054906101000a900460ff16156101c9576040517f08c379a00000000000000000000000000000000000000000000000000000000081526004016101c0906107df565b60405180910390fd5b60015f5f3373ffffffffffffffffffffffffffffffffffffffff1673ffffffffffffffffffffffffffffffffffffffff1681526020019081526020015f205f6101000a81548160ff021916908315150217905550600133908060018154018082558091505060019003905f5260205f20015f9091909190916101000a81548173ffffffffffffffffffffffffffffffffffffffff021916908373ffffffffffffffffffffffffffffffffffffffff160217905550565b8173ffffffffffffffffffffffffffffffffffffffff163373ffffffffffffffffffffffffffffffffffffffff167f0a85107a334eae0d22d21cdf13af0f8e8125039ec60baaa843d2c4c5b0680174836040516102dc919061080c565b60405180910390a35f5f90505b6001805490508110156103a8576001818154811061030a57610309610825565b5b905f5260205f20015f9054906101000a900473ffffffffffffffffffffffffffffffffffffffff1673ffffffffffffffffffffffffffffffffffffffff166376637cfe3385856040518463ffffffff1660e01b815260040161036e93929190610852565b5f604051808303815f87803b158015610385575f5ffd5b505af1158015610397573d5f5f3e3d5ffd5b5050505080806001019150506102e9565b505050565b5f5f3373ffffffffffffffffffffffffffffffffffffffff1673ffffffffffffffffffffffffffffffffffffffff1681526020019081526020015f205f9054906101000a900460ff16610435576040517f08c379a000000000000000000000000000000000000000000000000000000000815260040161042c906108d1565b60405180910390fd5b5f5f5f3373ffffffffffffffffffffffffffffffffffffffff1673ffffffffffffffffffffffffffffffffffffffff1681526020019081526020015f205f6101000a81548160ff0219169083151502179055505f5f90505b600180549050811015610602573373ffffffffffffffffffffffffffffffffffffffff16600182815481106104c5576104c4610825565b5b905f5260205f20015f9054906101000a900473ffffffffffffffffffffffffffffffffffffffff1673ffffffffffffffffffffffffffffffffffffffff16036105f557600180808054905061051a919061091c565b8154811061052b5761052a610825565b5b905f5260205f20015f9054906101000a900473ffffffffffffffffffffffffffffffffffffffff166001828154811061056757610566610825565b5b905f5260205f20015f6101000a81548173ffffffffffffffffffffffffffffffffffffffff021916908373ffffffffffffffffffffffffffffffffffffffff16021790555060018054806105be576105bd61094f565b5b600190038181905f5260205f20015f6101000a81549073ffffffffffffffffffffffffffffffffffffffff02191690559055610602565b808060010191505061048d565b50565b5f5ffd5b5f73ffffffffffffffffffffffffffffffffffffffff82169050919050565b5f61063282610609565b9050919050565b61064281610628565b811461064c575f5ffd5b50565b5f8135905061065d81610639565b92915050565b5f6020828403121561067857610677610605565b5b5f6106858482850161064f565b91505092915050565b5f8115159050919050565b6106a28161068e565b82525050565b5f6020820190506106bb5f830184610699565b92915050565b5f819050919050565b6106d3816106c1565b81146106dd575f5ffd5b50565b5f813590506106ee816106ca565b92915050565b5f6020828403121561070957610708610605565b5b5f610716848285016106e0565b91505092915050565b61072881610628565b82525050565b5f6020820190506107415f83018461071f565b92915050565b5f5f6040838503121561075d5761075c610605565b5b5f61076a8582860161064f565b925050602061077b858286016106e0565b9150509250929050565b5f82825260208201905092915050565b7f416c7265616479207375627363726962656400000000000000000000000000005f82015250565b5f6107c9601283610785565b91506107d482610795565b602082019050919050565b5f6020820190508181035f8301526107f6816107bd565b9050919050565b610806816106c1565b82525050565b5f60208201905061081f5f8301846107fd565b92915050565b7f4e487b71000000000000000000000000000000000000000000000000000000005f52603260045260245ffd5b5f6060820190506108655f83018661071f565b610872602083018561071f565b61087f60408301846107fd565b949350505050565b7f4e6f7420737562736372696265640000000000000000000000000000000000005f82015250565b5f6108bb600e83610785565b91506108c682610887565b602082019050919050565b5f6020820190508181035f8301526108e8816108af565b9050919050565b7f4e487b71000000000000000000000000000000000000000000000000000000005f52601160045260245ffd5b5f610926826106c1565b9150610931836106c1565b9250828203905081811115610949576109486108ef565b5b92915050565b7f4e487b71000000000000000000000000000000000000000000000000000000005f52603160045260245ffdfea264697066735822122081290b02457d6e6144c125d54bbdc81cb866180af260ff62370bed406538d19364736f6c63430008210033","linkReferences":{}},"methodIdentifiers":{"subscribe()":"8f449a05","subscriberList(uint256)":"83c2eaba","subscribers(address)":"5745ae28","transfer(address,uint256)":"a9059cbb","unsubscribe()":"fcae4484"},"id":36}