{"abi":[{"type":"function","name":"confirmTransfer","inputs":[{"name":"transferId","type":"bytes32","internalType":"bytes32"}],"outputs":[],"stateMutability":"nonpayable"},{"type":"function","name":"initiateTransfer","inputs":[{"name":"to","type":"address","internalType":"address"},{"name":"value","type":"uint256","internalType":"uint256"}],"outputs":[],"stateMutability":"nonpayable"},{"type":"function","name":"transferConfirmations","inputs":[{"name":"","type":"bytes32","internalType":"bytes32"}],"outputs":[{"name":"","type":"bool","internalType":"bool"}],"stateMutability":"view"},{"type":"event","name":"TransferConfirmed","inputs":[{"name":"from","type":"address","indexed":true,"internalType":"address"},{"name":"to","type":"address","indexed":true,"internalType":"address"},{"name":"value","type":"uint256","indexed":false,"internalType":"uint256"}],"anonymous":false},{"type":"event","name":"TransferInitiated","inputs":[{"name":"from","type":"address","indexed":true,"internalType":"address"},{"name":"to","type":"address","indexed":true,"internalType":"address"},{"name":"value","type":"uint256","indexed":false,"internalType":"uint256"}],"anonymous":false}],"bytecode":{"object":"0x6080604052348015600e575f5ffd5b506104ae8061001c5f395ff3fe608060405234801561000f575f5ffd5b506004361061003f575f3560e01c806336a55b3814610043578063b504cd1e1461005f578063ec700fb41461007b575b5f5ffd5b61005d60048036038101906100589190610254565b6100ab565b005b6100796004803603810190610074919061030c565b610198565b005b61009560048036038101906100909190610254565b610201565b6040516100a29190610364565b60405180910390f35b5f5f8281526020019081526020015f205f9054906101000a900460ff1615610108576040517f08c379a00000000000000000000000000000000000000000000000000000000081526004016100ff906103d7565b60405180910390fd5b60015f5f8381526020019081526020015f205f6101000a81548160ff0219169083151502179055503073ffffffffffffffffffffffffffffffffffffffff163373ffffffffffffffffffffffffffffffffffffffff167f2124d88aa92c7e58a611e48ff010ce34513712663afaac6573ccfd957d8965795f60405161018d9190610437565b60405180910390a350565b8173ffffffffffffffffffffffffffffffffffffffff163373ffffffffffffffffffffffffffffffffffffffff167f0cb34e106629dce34b632826bbba6b38e39c5957eb06a27e76efcc3d55da46b5836040516101f5919061045f565b60405180910390a35050565b5f602052805f5260405f205f915054906101000a900460ff1681565b5f5ffd5b5f819050919050565b61023381610221565b811461023d575f5ffd5b50565b5f8135905061024e8161022a565b92915050565b5f602082840312156102695761026861021d565b5b5f61027684828501610240565b91505092915050565b5f73ffffffffffffffffffffffffffffffffffffffff82169050919050565b5f6102a88261027f565b9050919050565b6102b88161029e565b81146102c2575f5ffd5b50565b5f813590506102d3816102af565b92915050565b5f819050919050565b6102eb816102d9565b81146102f5575f5ffd5b50565b5f81359050610306816102e2565b92915050565b5f5f604083850312156103225761032161021d565b5b5f61032f858286016102c5565b9250506020610340858286016102f8565b9150509250929050565b5f8115159050919050565b61035e8161034a565b82525050565b5f6020820190506103775f830184610355565b92915050565b5f82825260208201905092915050565b7f5472616e7366657220616c726561647920636f6e6669726d65640000000000005f82015250565b5f6103c1601a8361037d565b91506103cc8261038d565b602082019050919050565b5f6020820190508181035f8301526103ee816103b5565b9050919050565b5f819050919050565b5f819050919050565b5f61042161041c610417846103f5565b6103fe565b6102d9565b9050919050565b61043181610407565b82525050565b5f60208201905061044a5f830184610428565b92915050565b610459816102d9565b82525050565b5f6020820190506104725f830184610450565b9291505056fea264697066735822122007b32ffa44ac98c9d6c0b2fe3a023341fed473b49e5ce94d63b75a4a9b1fd0e864736f6c63430008210033","linkReferences":{}},"methodIdentifiers":{"confirmTransfer(bytes32)":"36a55b38","initiateTransfer(address,uint256)":"b504cd1e","transferConfirmations(bytes32)":"ec700fb4"},"id":36}