{"abi":[{"type":"function","name":"exampleNoUvdt","inputs":[],"outputs":[],"stateMutability":"view"},{"type":"function","name":"exampleUvdt","inputs":[],"outputs":[],"stateMutability":"view"}],"bytecode":{"object":"0x6080604052348015600e575f5ffd5b5060eb8061001b5f395ff3fe6080604052348015600e575f5ffd5b50600436106030575f3560e01c80630ba626881460345780636f2d0b5e14603c575b5f5ffd5b603a6044565b005b60426074565b005b5f600190505f4290505f8290505f8290505f5f9050606185856097565b9050606b83836097565b90505050505050565b5f5f600190505f4290506086828260a6565b92506090818360a6565b9250505050565b5f818360401b17905092915050565b5f818360401b1790509291505056fea2646970667358221220081635991b5688df9e9cf9adaa8efdf71b2531dccc481fbb0cf49894baeac6d964736f6c63430008210033","linkReferences":{}},"methodIdentifiers":{"exampleNoUvdt()":"6f2d0b5e","exampleUvdt()":"0ba62688"},"id":50}