{"abi":[{"type":"constructor","inputs":[],"stateMutability":"nonpayable"},{"type":"function","name":"changeOwner","inputs":[{"name":"_newOwner","type":"address","internalType":"address"}],"outputs":[],"stateMutability":"nonpayable"},{"type":"function","name":"decrement","inputs":[{"name":"i","type":"uint256","internalType":"uint256"}],"outputs":[],"stateMutability":"nonpayable"},{"type":"function","name":"locked","inputs":[],"outputs":[{"name":"","type":"bool","internalType":"bool"}],"stateMutability":"view"},{"type":"function","name":"owner","inputs":[],"outputs":[{"name":"","type":"address","internalType":"address"}],"stateMutability":"view"},{"type":"function","name":"x","inputs":[],"outputs":[{"name":"","type":"uint256","internalType":"uint256"}],"stateMutability":"view"}],"bytecode":{"object":"0x6080604052600a6001553480156013575f5ffd5b50335f5f6101000a81548173ffffffffffffffffffffffffffffffffffffffff021916908373ffffffffffffffffffffffffffffffffffffffff160217905550610695806100605f395ff3fe608060405234801561000f575f5ffd5b5060043610610055575f3560e01c80630c55699c146100595780633a9ebefd146100775780638da5cb5b14610093578063a6f9dae1146100b1578063cf309012146100cd575b5f5ffd5b6100616100eb565b60405161006e9190610365565b60405180910390f35b610091600480360381019061008c91906103ac565b6100f1565b005b61009b61013b565b6040516100a89190610416565b60405180910390f35b6100cb60048036038101906100c69190610459565b61015f565b005b6100d56101b4565b6040516100e2919061049e565b60405180910390f35b60015481565b6100f96101c6565b8060015f82825461010a91906104e4565b9250508190555060018111156101305761012f60018261012a91906104e4565b6100f1565b5b610138610231565b50565b5f5f9054906101000a900473ffffffffffffffffffffffffffffffffffffffff1681565b61016761024c565b80610171816102dc565b815f5f6101000a81548173ffffffffffffffffffffffffffffffffffffffff021916908373ffffffffffffffffffffffffffffffffffffffff1602179055505050565b60025f9054906101000a900460ff1681565b60025f9054906101000a900460ff1615610215576040517f08c379a000000000000000000000000000000000000000000000000000000000815260040161020c90610571565b60405180910390fd5b600160025f6101000a81548160ff021916908315150217905550565b5f60025f6101000a81548160ff021916908315150217905550565b5f5f9054906101000a900473ffffffffffffffffffffffffffffffffffffffff1673ffffffffffffffffffffffffffffffffffffffff163373ffffffffffffffffffffffffffffffffffffffff16146102da576040517f08c379a00000000000000000000000000000000000000000000000000000000081526004016102d1906105d9565b60405180910390fd5b565b5f73ffffffffffffffffffffffffffffffffffffffff168173ffffffffffffffffffffffffffffffffffffffff160361034a576040517f08c379a000000000000000000000000000000000000000000000000000000000815260040161034190610641565b60405180910390fd5b50565b5f819050919050565b61035f8161034d565b82525050565b5f6020820190506103785f830184610356565b92915050565b5f5ffd5b61038b8161034d565b8114610395575f5ffd5b50565b5f813590506103a681610382565b92915050565b5f602082840312156103c1576103c061037e565b5b5f6103ce84828501610398565b91505092915050565b5f73ffffffffffffffffffffffffffffffffffffffff82169050919050565b5f610400826103d7565b9050919050565b610410816103f6565b82525050565b5f6020820190506104295f830184610407565b92915050565b610438816103f6565b8114610442575f5ffd5b50565b5f813590506104538161042f565b92915050565b5f6020828403121561046e5761046d61037e565b5b5f61047b84828501610445565b91505092915050565b5f8115159050919050565b61049881610484565b82525050565b5f6020820190506104b15f83018461048f565b92915050565b7f4e487b71000000000000000000000000000000000000000000000000000000005f52601160045260245ffd5b5f6104ee8261034d565b91506104f98361034d565b9250828203905081811115610511576105106104b7565b5b92915050565b5f82825260208201905092915050565b7f4e6f207265656e7472616e6379000000000000000000000000000000000000005f82015250565b5f61055b600d83610517565b915061056682610527565b602082019050919050565b5f6020820190508181035f8301526105888161054f565b9050919050565b7f4e6f74206f776e657200000000000000000000000000000000000000000000005f82015250565b5f6105c3600983610517565b91506105ce8261058f565b602082019050919050565b5f6020820190508181035f8301526105f0816105b7565b9050919050565b7f4e6f742076616c696420616464726573730000000000000000000000000000005f82015250565b5f61062b601183610517565b9150610636826105f7565b602082019050919050565b5f6020820190508181035f8301526106588161061f565b905091905056fea2646970667358221220248c42697425afeb615eaf3c976e764d2e43a2436515afff63b4c17094ec553264736f6c63430008210033","linkReferences":{}},"methodIdentifiers":{"changeOwner(address)":"a6f9dae1","decrement(uint256)":"3a9ebefd","locked()":"cf309012","owner()":"8da5cb5b","x()":"0c55699c"},"id":38}