{"abi":[{"type":"function","name":"getSelector","inputs":[{"name":"_func","type":"string","internalType":"string"}],"outputs":[{"name":"","type":"bytes4","internalType":"bytes4"}],"stateMutability":"pure"}],"bytecode":{"object":"0x6080604052348015600e575f5ffd5b5061020f8061001c5f395ff3fe608060405234801561000f575f5ffd5b5060043610610029575f3560e01c806380a003ff1461002d575b5f5ffd5b610047600480360381019061004291906100e7565b61005d565b604051610054919061016c565b60405180910390f35b5f828260405161006e9291906101c1565b6040518091039020905092915050565b5f5ffd5b5f5ffd5b5f5ffd5b5f5ffd5b5f5ffd5b5f5f83601f8401126100a7576100a6610086565b5b8235905067ffffffffffffffff8111156100c4576100c361008a565b5b6020830191508360018202830111156100e0576100df61008e565b5b9250929050565b5f5f602083850312156100fd576100fc61007e565b5b5f83013567ffffffffffffffff81111561011a57610119610082565b5b61012685828601610092565b92509250509250929050565b5f7fffffffff0000000000000000000000000000000000000000000000000000000082169050919050565b61016681610132565b82525050565b5f60208201905061017f5f83018461015d565b92915050565b5f81905092915050565b828183375f83830152505050565b5f6101a88385610185565b93506101b583858461018f565b82840190509392505050565b5f6101cd82848661019d565b9150819050939250505056fea2646970667358221220f1c39f27ac5d3c724311aa975a7841adc721ff32b377c2e69bf42c1fcec74cc064736f6c63430008210033","linkReferences":{}},"methodIdentifiers":{"getSelector(string)":"80a003ff"},"id":56}