{"abi":[{"type":"function","name":"arr","inputs":[{"name":"","type":"uint256","internalType":"uint256"}],"outputs":[{"name":"","type":"uint256","internalType":"uint256"}],"stateMutability":"view"},{"type":"function","name":"arrayInput","inputs":[{"name":"_arr","type":"uint256[]","internalType":"uint256[]"}],"outputs":[],"stateMutability":"nonpayable"},{"type":"function","name":"arrayOutput","inputs":[],"outputs":[{"name":"","type":"uint256[]","internalType":"uint256[]"}],"stateMutability":"view"},{"type":"function","name":"assigned","inputs":[],"outputs":[{"name":"x","type":"uint256","internalType":"uint256"},{"name":"b","type":"bool","internalType":"bool"},{"name":"y","type":"uint256","internalType":"uint256"}],"stateMutability":"pure"},{"type":"function","name":"destructuringAssignments","inputs":[],"outputs":[{"name":"","type":"uint256","internalType":"uint256"},{"name":"","type":"bool","internalType":"bool"},{"name":"","type":"uint256","internalType":"uint256"},{"name":"","type":"uint256","internalType":"uint256"},{"name":"","type":"uint256","internalType":"uint256"}],"stateMutability":"pure"},{"type":"function","name":"named","inputs":[],"outputs":[{"name":"x","type":"uint256","internalType":"uint256"},{"name":"b","type":"bool","internalType":"bool"},{"name":"y","type":"uint256","internalType":"uint256"}],"stateMutability":"pure"},{"type":"function","name":"returnMany","inputs":[],"outputs":[{"name":"","type":"uint256","internalType":"uint256"},{"name":"","type":"bool","internalType":"bool"},{"name":"","type":"uint256","internalType":"uint256"}],"stateMutability":"pure"}],"bytecode":{"object":"0x6080604052348015600e575f5ffd5b506106358061001c5f395ff3fe608060405234801561000f575f5ffd5b506004361061007b575f3560e01c806371e5ee5f1161005957806371e5ee5f146100df578063868875441461010f578063adb4d9901461012f578063f4bb6e6b1461014f5761007b565b80631990532b1461007f57806345f907a81461009d57806368873440146100bd575b5f5ffd5b61008761016b565b604051610094919061031a565b60405180910390f35b6100a56101c0565b6040516100b493929190610363565b60405180910390f35b6100c56101d3565b6040516100d6959493929190610398565b60405180910390f35b6100f960048036038101906100f49190610424565b610211565b604051610106919061044f565b60405180910390f35b610117610230565b60405161012693929190610363565b60405180910390f35b610137610243565b60405161014693929190610363565b60405180910390f35b610169600480360381019061016491906105b8565b610257565b005b60605f8054806020026020016040519081016040528092919081815260200182805480156101b657602002820191905f5260205f20905b8154815260200190600101908083116101a2575b5050505050905090565b5f5f5f6001806002925092509250909192565b5f5f5f5f5f5f5f5f6101e3610230565b9250925092505f5f600460056006925050915084848484849950995099509950995050505050509091929394565b5f818154811061021f575f80fd5b905f5260205f20015f915090505481565b5f5f5f6001806002925092509250909192565b5f5f5f600192506001915060029050909192565b50565b5f81519050919050565b5f82825260208201905092915050565b5f819050602082019050919050565b5f819050919050565b61029581610283565b82525050565b5f6102a6838361028c565b60208301905092915050565b5f602082019050919050565b5f6102c88261025a565b6102d28185610264565b93506102dd83610274565b805f5b8381101561030d5781516102f4888261029b565b97506102ff836102b2565b9250506001810190506102e0565b5085935050505092915050565b5f6020820190508181035f83015261033281846102be565b905092915050565b61034381610283565b82525050565b5f8115159050919050565b61035d81610349565b82525050565b5f6060820190506103765f83018661033a565b6103836020830185610354565b610390604083018461033a565b949350505050565b5f60a0820190506103ab5f83018861033a565b6103b86020830187610354565b6103c5604083018661033a565b6103d2606083018561033a565b6103df608083018461033a565b9695505050505050565b5f604051905090565b5f5ffd5b5f5ffd5b61040381610283565b811461040d575f5ffd5b50565b5f8135905061041e816103fa565b92915050565b5f60208284031215610439576104386103f2565b5b5f61044684828501610410565b91505092915050565b5f6020820190506104625f83018461033a565b92915050565b5f5ffd5b5f601f19601f8301169050919050565b7f4e487b71000000000000000000000000000000000000000000000000000000005f52604160045260245ffd5b6104b28261046c565b810181811067ffffffffffffffff821117156104d1576104d061047c565b5b80604052505050565b5f6104e36103e9565b90506104ef82826104a9565b919050565b5f67ffffffffffffffff82111561050e5761050d61047c565b5b602082029050602081019050919050565b5f5ffd5b5f610535610530846104f4565b6104da565b905080838252602082019050602084028301858111156105585761055761051f565b5b835b81811015610581578061056d8882610410565b84526020840193505060208101905061055a565b5050509392505050565b5f82601f83011261059f5761059e610468565b5b81356105af848260208601610523565b91505092915050565b5f602082840312156105cd576105cc6103f2565b5b5f82013567ffffffffffffffff8111156105ea576105e96103f6565b5b6105f68482850161058b565b9150509291505056fea264697066735822122069be9267757ec3473cc7873680d6c0623b8258498718106a6797cbe52e596f0964736f6c63430008210033","linkReferences":{}},"methodIdentifiers":{"arr(uint256)":"71e5ee5f","arrayInput(uint256[])":"f4bb6e6b","arrayOutput()":"1990532b","assigned()":"adb4d990","destructuringAssignments()":"68873440","named()":"45f907a8","returnMany()":"86887544"},"id":37}