{"abi":[{"type":"function","name":"forever","inputs":[],"outputs":[],"stateMutability":"nonpayable"},{"type":"function","name":"i","inputs":[],"outputs":[{"name":"","type":"uint256","internalType":"uint256"}],"stateMutability":"view"}],"bytecode":{"object":"0x60806040525f5f553480156011575f5ffd5b506101538061001f5f395ff3fe608060405234801561000f575f5ffd5b5060043610610034575f3560e01c80639ff9a60314610038578063e5aa3d5814610042575b5f5ffd5b610040610060565b005b61004a610087565b60405161005791906100a4565b60405180910390f35b5b6001156100855760015f5f82825461007991906100ea565b92505081905550610061565b565b5f5481565b5f819050919050565b61009e8161008c565b82525050565b5f6020820190506100b75f830184610095565b92915050565b7f4e487b71000000000000000000000000000000000000000000000000000000005f52601160045260245ffd5b5f6100f48261008c565b91506100ff8361008c565b9250828201905080821115610117576101166100bd565b5b9291505056fea2646970667358221220a622e9a9ce35da83323e8094a684540412cfd27a6838b09b189fd70a033154df64736f6c63430008210033","linkReferences":{}},"methodIdentifiers":{"forever()":"9ff9a603","i()":"e5aa3d58"},"id":39}