{"abi":[{"type":"function","name":"sumIfEvenAndLessThan99","inputs":[{"name":"nums","type":"uint256[]","internalType":"uint256[]"}],"outputs":[],"stateMutability":"nonpayable"},{"type":"function","name":"total","inputs":[],"outputs":[{"name":"","type":"uint256","internalType":"uint256"}],"stateMutability":"view"}],"bytecode":{"object":"0x6080604052348015600e575f5ffd5b506102fa8061001c5f395ff3fe608060405234801561000f575f5ffd5b5060043610610034575f3560e01c80632ddbd13a14610038578063c9762ec214610056575b5f5ffd5b610040610072565b60405161004d919061010d565b60405180910390f35b610070600480360381019061006b919061018f565b610077565b005b5f5481565b5f5f5490505f8383905090505f5f90505b818110156100e8575f8585838181106100a4576100a36101da565b5b9050602002013590505f6002826100bb9190610234565b1480156100c85750606381105b156100dc5780846100d99190610291565b93505b81600101915050610088565b50815f8190555050505050565b5f819050919050565b610107816100f5565b82525050565b5f6020820190506101205f8301846100fe565b92915050565b5f5ffd5b5f5ffd5b5f5ffd5b5f5ffd5b5f5ffd5b5f5f83601f84011261014f5761014e61012e565b5b8235905067ffffffffffffffff81111561016c5761016b610132565b5b60208301915083602082028301111561018857610187610136565b5b9250929050565b5f5f602083850312156101a5576101a4610126565b5b5f83013567ffffffffffffffff8111156101c2576101c161012a565b5b6101ce8582860161013a565b92509250509250929050565b7f4e487b71000000000000000000000000000000000000000000000000000000005f52603260045260245ffd5b7f4e487b71000000000000000000000000000000000000000000000000000000005f52601260045260245ffd5b5f61023e826100f5565b9150610249836100f5565b92508261025957610258610207565b5b828206905092915050565b7f4e487b71000000000000000000000000000000000000000000000000000000005f52601160045260245ffd5b5f61029b826100f5565b91506102a6836100f5565b92508282019050808211156102be576102bd610264565b5b9291505056fea26469706673582212204df189290e6ef7290e6fdab1dba3fe965b9deb339215d2ce84b2103d1808fb1c64736f6c63430008210033","linkReferences":{}},"methodIdentifiers":{"sumIfEvenAndLessThan99(uint256[])":"c9762ec2","total()":"2ddbd13a"},"id":58}