{"abi":[{"type":"function","name":"answer","inputs":[],"outputs":[{"name":"","type":"bytes32","internalType":"bytes32"}],"stateMutability":"view"},{"type":"function","name":"guess","inputs":[{"name":"_word","type":"string","internalType":"string"}],"outputs":[{"name":"","type":"bool","internalType":"bool"}],"stateMutability":"view"}],"bytecode":{"object":"0x60806040527f60298f78cc0b47170ba79c10aa3851d7648bd96f2f8e46a19dbc777c36fb0c005f1b5f553480156033575f5ffd5b50610353806100415f395ff3fe608060405234801561000f575f5ffd5b5060043610610034575f3560e01c80634eee59b31461003857806385bb7d6914610068575b5f5ffd5b610052600480360381019061004d919061020a565b610086565b60405161005f919061026b565b60405180910390f35b6100706100b8565b60405161007d919061029c565b60405180910390f35b5f5f548260405160200161009a9190610307565b60405160208183030381529060405280519060200120149050919050565b5f5481565b5f604051905090565b5f5ffd5b5f5ffd5b5f5ffd5b5f5ffd5b5f601f19601f8301169050919050565b7f4e487b71000000000000000000000000000000000000000000000000000000005f52604160045260245ffd5b61011c826100d6565b810181811067ffffffffffffffff8211171561013b5761013a6100e6565b5b80604052505050565b5f61014d6100bd565b90506101598282610113565b919050565b5f67ffffffffffffffff821115610178576101776100e6565b5b610181826100d6565b9050602081019050919050565b828183375f83830152505050565b5f6101ae6101a98461015e565b610144565b9050828152602081018484840111156101ca576101c96100d2565b5b6101d584828561018e565b509392505050565b5f82601f8301126101f1576101f06100ce565b5b813561020184826020860161019c565b91505092915050565b5f6020828403121561021f5761021e6100c6565b5b5f82013567ffffffffffffffff81111561023c5761023b6100ca565b5b610248848285016101dd565b91505092915050565b5f8115159050919050565b61026581610251565b82525050565b5f60208201905061027e5f83018461025c565b92915050565b5f819050919050565b61029681610284565b82525050565b5f6020820190506102af5f83018461028d565b92915050565b5f81519050919050565b5f81905092915050565b8281835e5f83830152505050565b5f6102e1826102b5565b6102eb81856102bf565b93506102fb8185602086016102c9565b80840191505092915050565b5f61031282846102d7565b91508190509291505056fea264697066735822122086934217e2e6a01f257748acbb1da0ecda69a0387b5c1810c4832b9b804aa3e464736f6c63430008210033","linkReferences":{}},"methodIdentifiers":{"answer()":"85bb7d69","guess(string)":"4eee59b3"},"id":65}