{"abi":[{"type":"function","name":"collision","inputs":[{"name":"_text","type":"string","internalType":"string"},{"name":"_anotherText","type":"string","internalType":"string"}],"outputs":[{"name":"","type":"bytes32","internalType":"bytes32"}],"stateMutability":"pure"},{"type":"function","name":"hash","inputs":[{"name":"_text","type":"string","internalType":"string"},{"name":"_num","type":"uint256","internalType":"uint256"},{"name":"_addr","type":"address","internalType":"address"}],"outputs":[{"name":"","type":"bytes32","internalType":"bytes32"}],"stateMutability":"pure"}],"bytecode":{"object":"0x6080604052348015600e575f5ffd5b506105348061001c5f395ff3fe608060405234801561000f575f5ffd5b5060043610610034575f3560e01c80635dda416e146100385780637b7fb98214610068575b5f5ffd5b610052600480360381019061004d91906102d9565b610098565b60405161005f919061035d565b60405180910390f35b610082600480360381019061007d9190610376565b6100cd565b60405161008f919061035d565b60405180910390f35b5f8383836040516020016100ae939291906104a3565b6040516020818303038152906040528051906020012090509392505050565b5f82826040516020016100e19291906104db565b60405160208183030381529060405280519060200120905092915050565b5f604051905090565b5f5ffd5b5f5ffd5b5f5ffd5b5f5ffd5b5f601f19601f8301169050919050565b7f4e487b71000000000000000000000000000000000000000000000000000000005f52604160045260245ffd5b61015e82610118565b810181811067ffffffffffffffff8211171561017d5761017c610128565b5b80604052505050565b5f61018f6100ff565b905061019b8282610155565b919050565b5f67ffffffffffffffff8211156101ba576101b9610128565b5b6101c382610118565b9050602081019050919050565b828183375f83830152505050565b5f6101f06101eb846101a0565b610186565b90508281526020810184848401111561020c5761020b610114565b5b6102178482856101d0565b509392505050565b5f82601f83011261023357610232610110565b5b81356102438482602086016101de565b91505092915050565b5f819050919050565b61025e8161024c565b8114610268575f5ffd5b50565b5f8135905061027981610255565b92915050565b5f73ffffffffffffffffffffffffffffffffffffffff82169050919050565b5f6102a88261027f565b9050919050565b6102b88161029e565b81146102c2575f5ffd5b50565b5f813590506102d3816102af565b92915050565b5f5f5f606084860312156102f0576102ef610108565b5b5f84013567ffffffffffffffff81111561030d5761030c61010c565b5b6103198682870161021f565b935050602061032a8682870161026b565b925050604061033b868287016102c5565b9150509250925092565b5f819050919050565b61035781610345565b82525050565b5f6020820190506103705f83018461034e565b92915050565b5f5f6040838503121561038c5761038b610108565b5b5f83013567ffffffffffffffff8111156103a9576103a861010c565b5b6103b58582860161021f565b925050602083013567ffffffffffffffff8111156103d6576103d561010c565b5b6103e28582860161021f565b9150509250929050565b5f81519050919050565b5f81905092915050565b8281835e5f83830152505050565b5f610418826103ec565b61042281856103f6565b9350610432818560208601610400565b80840191505092915050565b5f819050919050565b6104586104538261024c565b61043e565b82525050565b5f8160601b9050919050565b5f6104748261045e565b9050919050565b5f6104858261046a565b9050919050565b61049d6104988261029e565b61047b565b82525050565b5f6104ae828661040e565b91506104ba8285610447565b6020820191506104ca828461048c565b601482019150819050949350505050565b5f6104e6828561040e565b91506104f2828461040e565b9150819050939250505056fea264697066735822122082c169175c6cceb9a220c8c9271fa2827f93329b4fe9cca573a716e74e36815764736f6c63430008210033","linkReferences":{}},"methodIdentifiers":{"collision(string,string)":"7b7fb982","hash(string,uint256,address)":"5dda416e"},"id":65}