{"abi":[{"type":"function","name":"foo","inputs":[{"name":"x","type":"uint256","internalType":"uint256"}],"outputs":[{"name":"","type":"uint256","internalType":"uint256"}],"stateMutability":"pure"},{"type":"function","name":"ternary","inputs":[{"name":"_x","type":"uint256","internalType":"uint256"}],"outputs":[{"name":"","type":"uint256","internalType":"uint256"}],"stateMutability":"pure"}],"bytecode":{"object":"0x6080604052348015600e575f5ffd5b506101a38061001c5f395ff3fe608060405234801561000f575f5ffd5b5060043610610034575f3560e01c80632fbebd381461003857806355278c5b14610068575b5f5ffd5b610052600480360381019061004d919061011a565b610098565b60405161005f9190610154565b60405180910390f35b610082600480360381019061007d919061011a565b6100c6565b60405161008f9190610154565b60405180910390f35b5f600a8210156100aa575f90506100c1565b60148210156100bc57600190506100c1565b600290505b919050565b5f600a82106100d65760026100d9565b60015b60ff169050919050565b5f5ffd5b5f819050919050565b6100f9816100e7565b8114610103575f5ffd5b50565b5f81359050610114816100f0565b92915050565b5f6020828403121561012f5761012e6100e3565b5b5f61013c84828501610106565b91505092915050565b61014e816100e7565b82525050565b5f6020820190506101675f830184610145565b9291505056fea26469706673582212204055b3b642c22cf4a50b13213b61e977147f244edf94631177c1eb0966aa71a964736f6c63430008210033","linkReferences":{}},"methodIdentifiers":{"foo(uint256)":"2fbebd38","ternary(uint256)":"55278c5b"},"id":40}