{"abi":[{"type":"constructor","inputs":[{"name":"_myUint","type":"uint256","internalType":"uint256"}],"stateMutability":"nonpayable"},{"type":"function","name":"MY_ADDRESS","inputs":[],"outputs":[{"name":"","type":"address","internalType":"address"}],"stateMutability":"view"},{"type":"function","name":"MY_UINT","inputs":[],"outputs":[{"name":"","type":"uint256","internalType":"uint256"}],"stateMutability":"view"}],"bytecode":{"object":"0x60c060405234801561000f575f5ffd5b5060405161026f38038061026f833981810160405281019061003191906100aa565b3373ffffffffffffffffffffffffffffffffffffffff1660808173ffffffffffffffffffffffffffffffffffffffff16815250508060a08181525050506100d5565b5f5ffd5b5f819050919050565b61008981610077565b8114610093575f5ffd5b50565b5f815190506100a481610080565b92915050565b5f602082840312156100bf576100be610073565b5b5f6100cc84828501610096565b91505092915050565b60805160a05161017b6100f45f395f607601525f609a015261017b5ff3fe608060405234801561000f575f5ffd5b5060043610610034575f3560e01c80631f6649e3146100385780633a756cec14610056575b5f5ffd5b610040610074565b60405161004d91906100d4565b60405180910390f35b61005e610098565b60405161006b919061012c565b60405180910390f35b7f000000000000000000000000000000000000000000000000000000000000000081565b7f000000000000000000000000000000000000000000000000000000000000000081565b5f819050919050565b6100ce816100bc565b82525050565b5f6020820190506100e75f8301846100c5565b92915050565b5f73ffffffffffffffffffffffffffffffffffffffff82169050919050565b5f610116826100ed565b9050919050565b6101268161010c565b82525050565b5f60208201905061013f5f83018461011d565b9291505056fea264697066735822122052687126ed653d2b46af2110252506a3f9aa03cda26511ac3b22d259d39801f464736f6c63430008210033","linkReferences":{}},"methodIdentifiers":{"MY_ADDRESS()":"3a756cec","MY_UINT()":"1f6649e3"},"id":41}