{"abi":[{"type":"fallback","stateMutability":"nonpayable"},{"type":"function","name":"attack","inputs":[{"name":"_target","type":"address","internalType":"address"}],"outputs":[],"stateMutability":"nonpayable"},{"type":"function","name":"count","inputs":[],"outputs":[{"name":"","type":"uint256","internalType":"uint256"}],"stateMutability":"view"}],"bytecode":{"object":"0x60806040525f5f553480156011575f5ffd5b5061021f8061001f5f395ff3fe608060405234801561000f575f5ffd5b5060043610610038575f3560e01c806306661abd14610092578063d018db3e146100b057610039565b5b3373ffffffffffffffffffffffffffffffffffffffff1663f8a8fd6d6040518163ffffffff1660e01b81526004015f604051808303815f87803b15801561007e575f5ffd5b505af1158015610090573d5f5f3e3d5ffd5b005b61009a6100cc565b6040516100a79190610147565b60405180910390f35b6100ca60048036038101906100c591906101be565b6100d1565b005b5f5481565b8073ffffffffffffffffffffffffffffffffffffffff1663f8a8fd6d6040518163ffffffff1660e01b81526004015f604051808303815f87803b158015610116575f5ffd5b505af1158015610128573d5f5f3e3d5ffd5b5050505050565b5f819050919050565b6101418161012f565b82525050565b5f60208201905061015a5f830184610138565b92915050565b5f5ffd5b5f73ffffffffffffffffffffffffffffffffffffffff82169050919050565b5f61018d82610164565b9050919050565b61019d81610183565b81146101a7575f5ffd5b50565b5f813590506101b881610194565b92915050565b5f602082840312156101d3576101d2610160565b5b5f6101e0848285016101aa565b9150509291505056fea2646970667358221220fba46106279e3c1091e51741e755dd49acc60f5041ec67228f1eb124e396febe64736f6c63430008210033","linkReferences":{}},"methodIdentifiers":{"attack(address)":"d018db3e","count()":"06661abd"},"id":49}