{"abi":[{"type":"function","name":"get","inputs":[{"name":"_addr","type":"address","internalType":"address"}],"outputs":[{"name":"","type":"uint256","internalType":"uint256"}],"stateMutability":"view"},{"type":"function","name":"myMap","inputs":[{"name":"","type":"address","internalType":"address"}],"outputs":[{"name":"","type":"uint256","internalType":"uint256"}],"stateMutability":"view"},{"type":"function","name":"remove","inputs":[{"name":"_addr","type":"address","internalType":"address"}],"outputs":[],"stateMutability":"nonpayable"},{"type":"function","name":"set","inputs":[{"name":"_addr","type":"address","internalType":"address"},{"name":"_i","type":"uint256","internalType":"uint256"}],"outputs":[],"stateMutability":"nonpayable"}],"bytecode":{"object":"0x6080604052348015600e575f5ffd5b5061031e8061001c5f395ff3fe608060405234801561000f575f5ffd5b506004361061004a575f3560e01c806327cbd5291461004e57806329092d0e1461007e5780633825d8281461009a578063c2bc2efc146100b6575b5f5ffd5b61006860048036038101906100639190610224565b6100e6565b6040516100759190610267565b60405180910390f35b61009860048036038101906100939190610224565b6100fa565b005b6100b460048036038101906100af91906102aa565b61013c565b005b6100d060048036038101906100cb9190610224565b610181565b6040516100dd9190610267565b60405180910390f35b5f602052805f5260405f205f915090505481565b5f5f8273ffffffffffffffffffffffffffffffffffffffff1673ffffffffffffffffffffffffffffffffffffffff1681526020019081526020015f205f905550565b805f5f8473ffffffffffffffffffffffffffffffffffffffff1673ffffffffffffffffffffffffffffffffffffffff1681526020019081526020015f20819055505050565b5f5f5f8373ffffffffffffffffffffffffffffffffffffffff1673ffffffffffffffffffffffffffffffffffffffff1681526020019081526020015f20549050919050565b5f5ffd5b5f73ffffffffffffffffffffffffffffffffffffffff82169050919050565b5f6101f3826101ca565b9050919050565b610203816101e9565b811461020d575f5ffd5b50565b5f8135905061021e816101fa565b92915050565b5f60208284031215610239576102386101c6565b5b5f61024684828501610210565b91505092915050565b5f819050919050565b6102618161024f565b82525050565b5f60208201905061027a5f830184610258565b92915050565b6102898161024f565b8114610293575f5ffd5b50565b5f813590506102a481610280565b92915050565b5f5f604083850312156102c0576102bf6101c6565b5b5f6102cd85828601610210565b92505060206102de85828601610296565b915050925092905056fea26469706673582212206b9fec3f4d1ce7525054db55e877fd3d6ec88cf38ea1228fb9a9e1b8a2cc098f64736f6c63430008210033","linkReferences":{}},"methodIdentifiers":{"get(address)":"c2bc2efc","myMap(address)":"27cbd529","remove(address)":"29092d0e","set(address,uint256)":"3825d828"},"id":43}