{"abi":[{"type":"constructor","inputs":[],"stateMutability":"payable"},{"type":"function","name":"deposit","inputs":[],"outputs":[],"stateMutability":"payable"},{"type":"function","name":"notPayable","inputs":[],"outputs":[],"stateMutability":"nonpayable"},{"type":"function","name":"owner","inputs":[],"outputs":[{"name":"","type":"address","internalType":"address payable"}],"stateMutability":"view"},{"type":"function","name":"transfer","inputs":[{"name":"_to","type":"address","internalType":"address payable"},{"name":"_amount","type":"uint256","internalType":"uint256"}],"outputs":[],"stateMutability":"nonpayable"},{"type":"function","name":"withdraw","inputs":[],"outputs":[],"stateMutability":"nonpayable"}],"bytecode":{"object":"0x6080604052335f5f6101000a81548173ffffffffffffffffffffffffffffffffffffffff021916908373ffffffffffffffffffffffffffffffffffffffff160217905550610460806100505f395ff3fe608060405260043610610049575f3560e01c8063273884bd1461004d5780633ccfd60b146100635780638da5cb5b14610079578063a9059cbb146100a3578063d0e30db0146100cb575b5f5ffd5b348015610058575f5ffd5b506100616100d5565b005b34801561006e575f5ffd5b506100776100d7565b005b348015610084575f5ffd5b5061008d6101a7565b60405161009a91906102b9565b60405180910390f35b3480156100ae575f5ffd5b506100c960048036038101906100c49190610333565b6101cb565b005b6100d3610278565b005b565b5f4790505f5f5f9054906101000a900473ffffffffffffffffffffffffffffffffffffffff1673ffffffffffffffffffffffffffffffffffffffff16826040516101209061039e565b5f6040518083038185875af1925050503d805f811461015a576040519150601f19603f3d011682016040523d82523d5f602084013e61015f565b606091505b50509050806101a3576040517f08c379a000000000000000000000000000000000000000000000000000000000815260040161019a9061040c565b60405180910390fd5b5050565b5f5f9054906101000a900473ffffffffffffffffffffffffffffffffffffffff1681565b5f8273ffffffffffffffffffffffffffffffffffffffff16826040516101f09061039e565b5f6040518083038185875af1925050503d805f811461022a576040519150601f19603f3d011682016040523d82523d5f602084013e61022f565b606091505b5050905080610273576040517f08c379a000000000000000000000000000000000000000000000000000000000815260040161026a9061040c565b60405180910390fd5b505050565b565b5f73ffffffffffffffffffffffffffffffffffffffff82169050919050565b5f6102a38261027a565b9050919050565b6102b381610299565b82525050565b5f6020820190506102cc5f8301846102aa565b92915050565b5f5ffd5b6102df81610299565b81146102e9575f5ffd5b50565b5f813590506102fa816102d6565b92915050565b5f819050919050565b61031281610300565b811461031c575f5ffd5b50565b5f8135905061032d81610309565b92915050565b5f5f60408385031215610349576103486102d2565b5b5f610356858286016102ec565b92505060206103678582860161031f565b9150509250929050565b5f81905092915050565b50565b5f6103895f83610371565b91506103948261037b565b5f82019050919050565b5f6103a88261037e565b9150819050919050565b5f82825260208201905092915050565b7f4661696c656420746f2073656e642045746865720000000000000000000000005f82015250565b5f6103f66014836103b2565b9150610401826103c2565b602082019050919050565b5f6020820190508181035f830152610423816103ea565b905091905056fea2646970667358221220f454bb607d58f666b054c83d9e40078db66cc46b63ad8501ae314bd9f2df4ab664736f6c63430008210033","linkReferences":{}},"methodIdentifiers":{"deposit()":"d0e30db0","notPayable()":"273884bd","owner()":"8da5cb5b","transfer(address,uint256)":"a9059cbb","withdraw()":"3ccfd60b"},"id":74}