{"abi":[{"type":"function","name":"addr","inputs":[],"outputs":[{"name":"","type":"address","internalType":"address"}],"stateMutability":"view"},{"type":"function","name":"appendDynamicBytes","inputs":[{"name":"_extra","type":"bytes","internalType":"bytes"}],"outputs":[],"stateMutability":"nonpayable"},{"type":"function","name":"boo","inputs":[],"outputs":[{"name":"","type":"bool","internalType":"bool"}],"stateMutability":"view"},{"type":"function","name":"c","inputs":[],"outputs":[{"name":"","type":"bytes2","internalType":"bytes2"}],"stateMutability":"view"},{"type":"function","name":"d","inputs":[],"outputs":[{"name":"","type":"bytes32","internalType":"bytes32"}],"stateMutability":"view"},{"type":"function","name":"defaultAddr","inputs":[],"outputs":[{"name":"","type":"address","internalType":"address"}],"stateMutability":"view"},{"type":"function","name":"defaultBoo","inputs":[],"outputs":[{"name":"","type":"bool","internalType":"bool"}],"stateMutability":"view"},{"type":"function","name":"defaultBytes","inputs":[],"outputs":[{"name":"","type":"bytes","internalType":"bytes"}],"stateMutability":"view"},{"type":"function","name":"defaultBytes1","inputs":[],"outputs":[{"name":"","type":"bytes1","internalType":"bytes1"}],"stateMutability":"view"},{"type":"function","name":"defaultInt","inputs":[],"outputs":[{"name":"","type":"int256","internalType":"int256"}],"stateMutability":"view"},{"type":"function","name":"defaultString","inputs":[],"outputs":[{"name":"","type":"string","internalType":"string"}],"stateMutability":"view"},{"type":"function","name":"defaultUint","inputs":[],"outputs":[{"name":"","type":"uint256","internalType":"uint256"}],"stateMutability":"view"},{"type":"function","name":"dynamicByteAt","inputs":[{"name":"_index","type":"uint256","internalType":"uint256"}],"outputs":[{"name":"","type":"bytes1","internalType":"bytes1"}],"stateMutability":"view"},{"type":"function","name":"dynamicBytes","inputs":[],"outputs":[{"name":"","type":"bytes","internalType":"bytes"}],"stateMutability":"view"},{"type":"function","name":"dynamicBytesLength","inputs":[],"outputs":[{"name":"","type":"uint256","internalType":"uint256"}],"stateMutability":"view"},{"type":"function","name":"getLocalDefaults","inputs":[],"outputs":[{"name":"booValue","type":"bool","internalType":"bool"},{"name":"uintValue","type":"uint256","internalType":"uint256"},{"name":"intValue","type":"int256","internalType":"int256"},{"name":"addrValue","type":"address","internalType":"address"},{"name":"bytes1Value","type":"bytes1","internalType":"bytes1"}],"stateMutability":"pure"},{"type":"function","name":"i","inputs":[],"outputs":[{"name":"","type":"int256","internalType":"int256"}],"stateMutability":"view"},{"type":"function","name":"i128","inputs":[],"outputs":[{"name":"","type":"int128","internalType":"int128"}],"stateMutability":"view"},{"type":"function","name":"i256","inputs":[],"outputs":[{"name":"","type":"int256","internalType":"int256"}],"stateMutability":"view"},{"type":"function","name":"i8","inputs":[],"outputs":[{"name":"","type":"int8","internalType":"int8"}],"stateMutability":"view"},{"type":"function","name":"maxInt","inputs":[],"outputs":[{"name":"","type":"int256","internalType":"int256"}],"stateMutability":"view"},{"type":"function","name":"maxUint","inputs":[],"outputs":[{"name":"","type":"uint256","internalType":"uint256"}],"stateMutability":"view"},{"type":"function","name":"minInt","inputs":[],"outputs":[{"name":"","type":"int256","internalType":"int256"}],"stateMutability":"view"},{"type":"function","name":"payableAddr","inputs":[],"outputs":[{"name":"","type":"address","internalType":"address payable"}],"stateMutability":"view"},{"type":"function","name":"setDynamicBytes","inputs":[{"name":"_data","type":"bytes","internalType":"bytes"}],"outputs":[],"stateMutability":"nonpayable"},{"type":"function","name":"u","inputs":[],"outputs":[{"name":"","type":"uint256","internalType":"uint256"}],"stateMutability":"view"},{"type":"function","name":"u16","inputs":[],"outputs":[{"name":"","type":"uint16","internalType":"uint16"}],"stateMutability":"view"},{"type":"function","name":"u256","inputs":[],"outputs":[{"name":"","type":"uint256","internalType":"uint256"}],"stateMutability":"view"},{"type":"function","name":"u8","inputs":[],"outputs":[{"name":"","type":"uint8","internalType":"uint8"}],"stateMutability":"view"}],"bytecode":{"object":"0x608060405260015f5f6101000a81548160ff02191690831515021790555060015f60016101000a81548160ff021916908360ff1602179055506101f45f60026101000a81548161ffff021916908361ffff1602179055506101c8600155607b6002557fffffffffffffffffffffffffffffffffffffffffffffffffffffffffffffffff6003557fffffffffffffffffffffffffffffffffffffffffffffffffffffffffffffffff60045f6101000a81548160ff02191690835f0b60ff1602179055507ffffffffffffffffffffffffffffffffffffffffffffffffffffffffffffffec0600460016101000a8154816fffffffffffffffffffffffffffffffff0219169083600f0b6fffffffffffffffffffffffffffffffff1602179055506101c86005557fffffffffffffffffffffffffffffffffffffffffffffffffffffffffffffff856006557f80000000000000000000000000000000000000000000000000000000000000006007557f7fffffffffffffffffffffffffffffffffffffffffffffffffffffffffffffff60085573ca35b7d915458ef540ade6068dfe2f44e8fa733c60095f6101000a81548173ffffffffffffffffffffffffffffffffffffffff021916908373ffffffffffffffffffffffffffffffffffffffff16021790555073ca35b7d915458ef540ade6068dfe2f44e8fa733c600a5f6101000a81548173ffffffffffffffffffffffffffffffffffffffff021916908373ffffffffffffffffffffffffffffffffffffffff16021790555060b560f81b600a60146101000a81548160ff021916908360f81c0217905550605660f81b600a60156101000a81548160ff021916908360f81c021790555061123460f01b600a60166101000a81548161ffff021916908360f01c02179055507f736f6c6964697479000000000000000000000000000000000000000000000000600b556040518060400160405280600381526020017f1234560000000000000000000000000000000000000000000000000000000000815250600c90816102fe919061055e565b5034801561030a575f5ffd5b5061062d565b5f81519050919050565b7f4e487b71000000000000000000000000000000000000000000000000000000005f52604160045260245ffd5b7f4e487b71000000000000000000000000000000000000000000000000000000005f52602260045260245ffd5b5f600282049050600182168061038b57607f821691505b60208210810361039e5761039d610347565b5b50919050565b5f819050815f5260205f209050919050565b5f6020601f8301049050919050565b5f82821b905092915050565b5f600883026104007fffffffffffffffffffffffffffffffffffffffffffffffffffffffffffffffff826103c5565b61040a86836103c5565b95508019841693508086168417925050509392505050565b5f819050919050565b5f819050919050565b5f61044e61044961044484610422565b61042b565b610422565b9050919050565b5f819050919050565b61046783610434565b61047b61047382610455565b8484546103d1565b825550505050565b5f5f905090565b610492610483565b61049d81848461045e565b505050565b5f5b828110156104c3576104b85f82840161048a565b6001810190506104a4565b505050565b601f8211156105165782821115610515576104e2816103a4565b6104eb836103b6565b6104f4856103b6565b6020861015610501575f90505b808301610510828403826104a2565b505050505b5b505050565b5f82821c905092915050565b5f6105365f198460080261051b565b1980831691505092915050565b5f61054e8383610527565b9150826002028217905092915050565b61056782610310565b67ffffffffffffffff8111156105805761057f61031a565b5b61058a8254610374565b6105958282856104c8565b5f60209050601f8311600181146105c6575f84156105b4578287015190505b6105be8582610543565b865550610625565b601f1984166105d4866103a4565b5f5b828110156105fb578489015182556001820191506020850194506020810190506105d6565b868310156106185784890151610614601f891682610527565b8355505b6001600288020188555050505b505050505050565b6114208061063a5f395ff3fe608060405234801561000f575f5ffd5b50600436106101cd575f3560e01c8063767800de11610102578063ae0a81b3116100a0578063c6a898c51161006f578063c6a898c5146104d1578063e5aa3d58146104ef578063e96b824a1461050d578063f2427d371461052b576101cd565b8063ae0a81b314610445578063b257444014610461578063bb28485c14610491578063c3da42b8146104b3576101cd565b806387f2755e116100dc57806387f2755e146103cd5780638a054ac2146103eb578063921cda7414610409578063ab3a58a314610427576101cd565b8063767800de146103735780637a4c2571146103915780637e4e14cc146103af576101cd565b8063459b1acf1161016f5780634c00fd84116101495780634c00fd84146102fb5780634c27fd62146103195780635abe622b1461033757806364da813a14610355576101cd565b8063459b1acf146102a3578063464e28f8146102c15780634b3df200146102dd576101cd565b80631570c2cb116101ab5780631570c2cb1461022b57806316a0c5b5146102495780632537f3551461026757806333ae815814610285576101cd565b8063074eef3f146101d15780630a6b4e06146101ef5780630cba40c81461020d575b5f5ffd5b6101d9610549565b6040516101e69190610984565b60405180910390f35b6101f761055b565b60405161020491906109b9565b60405180910390f35b61021561056e565b60405161022291906109ed565b60405180910390f35b610233610581565b6040516102409190610a1e565b60405180910390f35b610251610587565b60405161025e9190610a1e565b60405180910390f35b61026f61058d565b60405161027c9190610a76565b60405180910390f35b61028d6105b2565b60405161029a9190610aff565b60405180910390f35b6102ab61063e565b6040516102b89190610a1e565b60405180910390f35b6102db60048036038101906102d69190610b88565b610644565b005b6102e561065a565b6040516102f29190610984565b60405180910390f35b61030361066b565b6040516103109190610c25565b60405180910390f35b6103216106f7565b60405161032e9190610c5d565b60405180910390f35b61033f6106fd565b60405161034c9190610c5d565b60405180910390f35b61035d610703565b60405161036a9190610cb0565b60405180910390f35b61037b610716565b6040516103889190610ce9565b60405180910390f35b61039961073b565b6040516103a69190610c5d565b60405180910390f35b6103b7610741565b6040516103c49190610c5d565b60405180910390f35b6103d5610747565b6040516103e29190610a1e565b60405180910390f35b6103f361075c565b6040516104009190610d1a565b60405180910390f35b610411610762565b60405161041e9190610d4d565b60405180910390f35b61042f610773565b60405161043c9190610d81565b60405180910390f35b61045f600480360381019061045a9190610b88565b610785565b005b61047b60048036038101906104769190610dc4565b6107bd565b6040516104889190610cb0565b60405180910390f35b610499610875565b6040516104aa959493929190610def565b60405180910390f35b6104bb61089a565b6040516104c89190610e7a565b60405180910390f35b6104d96108ad565b6040516104e69190610a1e565b60405180910390f35b6104f76108b3565b6040516105049190610c5d565b60405180910390f35b6105156108b9565b6040516105229190610aff565b60405180910390f35b610533610945565b6040516105409190610ce9565b60405180910390f35b600d5f9054906101000a900460ff1681565b5f60029054906101000a900461ffff1681565b600460019054906101000a9004600f0b81565b600e5481565b60035481565b600a5f9054906101000a900473ffffffffffffffffffffffffffffffffffffffff1681565b600c80546105bf90610ec0565b80601f01602080910402602001604051908101604052809291908181526020018280546105eb90610ec0565b80156106365780601f1061060d57610100808354040283529160200191610636565b820191905f5260205f20905b81548152906001019060200180831161061957829003601f168201915b505050505081565b60015481565b8181600c91826106559291906110d8565b505050565b5f5f9054906101000a900460ff1681565b6012805461067890610ec0565b80601f01602080910402602001604051908101604052809291908181526020018280546106a490610ec0565b80156106ef5780601f106106c6576101008083540402835291602001916106ef565b820191905f5260205f20905b8154815290600101906020018083116106d257829003601f168201915b505050505081565b60055481565b600f5481565b601060149054906101000a900460f81b81565b60095f9054906101000a900473ffffffffffffffffffffffffffffffffffffffff1681565b60085481565b60075481565b5f600c805461075590610ec0565b9050905090565b600b5481565b60045f9054906101000a90045f0b81565b5f60019054906101000a900460ff1681565b600c828260405160200161079b93929190611261565b604051602081830303815290604052600c90816107b89190611286565b505050565b5f600c80546107cb90610ec0565b9050821061080e576040517f08c379a00000000000000000000000000000000000000000000000000000000081526004016108059061139f565b60405180910390fd5b600c82815461081c90610ec0565b811061082b5761082a6113bd565b5b81546001161561084857905f5260205f2090602091828204019190065b9054901a7f0100000000000000000000000000000000000000000000000000000000000000029050919050565b5f5f5f5f5f5f5f5f5f5f84848484849950995099509950995050505050509091929394565b600a60169054906101000a900460f01b81565b60025481565b60065481565b601180546108c690610ec0565b80601f01602080910402602001604051908101604052809291908181526020018280546108f290610ec0565b801561093d5780601f106109145761010080835404028352916020019161093d565b820191905f5260205f20905b81548152906001019060200180831161092057829003601f168201915b505050505081565b60105f9054906101000a900473ffffffffffffffffffffffffffffffffffffffff1681565b5f8115159050919050565b61097e8161096a565b82525050565b5f6020820190506109975f830184610975565b92915050565b5f61ffff82169050919050565b6109b38161099d565b82525050565b5f6020820190506109cc5f8301846109aa565b92915050565b5f81600f0b9050919050565b6109e7816109d2565b82525050565b5f602082019050610a005f8301846109de565b92915050565b5f819050919050565b610a1881610a06565b82525050565b5f602082019050610a315f830184610a0f565b92915050565b5f73ffffffffffffffffffffffffffffffffffffffff82169050919050565b5f610a6082610a37565b9050919050565b610a7081610a56565b82525050565b5f602082019050610a895f830184610a67565b92915050565b5f81519050919050565b5f82825260208201905092915050565b8281835e5f83830152505050565b5f601f19601f8301169050919050565b5f610ad182610a8f565b610adb8185610a99565b9350610aeb818560208601610aa9565b610af481610ab7565b840191505092915050565b5f6020820190508181035f830152610b178184610ac7565b905092915050565b5f5ffd5b5f5ffd5b5f5ffd5b5f5ffd5b5f5ffd5b5f5f83601f840112610b4857610b47610b27565b5b8235905067ffffffffffffffff811115610b6557610b64610b2b565b5b602083019150836001820283011115610b8157610b80610b2f565b5b9250929050565b5f5f60208385031215610b9e57610b9d610b1f565b5b5f83013567ffffffffffffffff811115610bbb57610bba610b23565b5b610bc785828601610b33565b92509250509250929050565b5f81519050919050565b5f82825260208201905092915050565b5f610bf782610bd3565b610c018185610bdd565b9350610c11818560208601610aa9565b610c1a81610ab7565b840191505092915050565b5f6020820190508181035f830152610c3d8184610bed565b905092915050565b5f819050919050565b610c5781610c45565b82525050565b5f602082019050610c705f830184610c4e565b92915050565b5f7fff0000000000000000000000000000000000000000000000000000000000000082169050919050565b610caa81610c76565b82525050565b5f602082019050610cc35f830184610ca1565b92915050565b5f610cd382610a37565b9050919050565b610ce381610cc9565b82525050565b5f602082019050610cfc5f830184610cda565b92915050565b5f819050919050565b610d1481610d02565b82525050565b5f602082019050610d2d5f830184610d0b565b92915050565b5f815f0b9050919050565b610d4781610d33565b82525050565b5f602082019050610d605f830184610d3e565b92915050565b5f60ff82169050919050565b610d7b81610d66565b82525050565b5f602082019050610d945f830184610d72565b92915050565b610da381610a06565b8114610dad575f5ffd5b50565b5f81359050610dbe81610d9a565b92915050565b5f60208284031215610dd957610dd8610b1f565b5b5f610de684828501610db0565b91505092915050565b5f60a082019050610e025f830188610975565b610e0f6020830187610a0f565b610e1c6040830186610c4e565b610e296060830185610cda565b610e366080830184610ca1565b9695505050505050565b5f7fffff00000000000000000000000000000000000000000000000000000000000082169050919050565b610e7481610e40565b82525050565b5f602082019050610e8d5f830184610e6b565b92915050565b7f4e487b71000000000000000000000000000000000000000000000000000000005f52602260045260245ffd5b5f6002820490506001821680610ed757607f821691505b602082108103610eea57610ee9610e93565b5b50919050565b5f82905092915050565b7f4e487b71000000000000000000000000000000000000000000000000000000005f52604160045260245ffd5b5f819050815f5260205f209050919050565b5f6020601f8301049050919050565b5f82821b905092915050565b5f60088302610f837fffffffffffffffffffffffffffffffffffffffffffffffffffffffffffffffff82610f48565b610f8d8683610f48565b95508019841693508086168417925050509392505050565b5f819050919050565b5f610fc8610fc3610fbe84610a06565b610fa5565b610a06565b9050919050565b5f819050919050565b610fe183610fae565b610ff5610fed82610fcf565b848454610f54565b825550505050565b5f5f905090565b61100c610ffd565b611017818484610fd8565b505050565b5f5b8281101561103d576110325f828401611004565b60018101905061101e565b505050565b601f821115611090578282111561108f5761105c81610f27565b61106583610f39565b61106e85610f39565b602086101561107b575f90505b80830161108a8284038261101c565b505050505b5b505050565b5f82821c905092915050565b5f6110b05f1984600802611095565b1980831691505092915050565b5f6110c883836110a1565b9150826002028217905092915050565b6110e28383610ef0565b67ffffffffffffffff8111156110fb576110fa610efa565b5b6111058254610ec0565b611110828285611042565b5f601f83116001811461113d575f841561112b578287013590505b61113585826110bd565b86555061119c565b601f19841661114b86610f27565b5f5b828110156111725784890135825560018201915060208501945060208101905061114d565b8683101561118f578489013561118b601f8916826110a1565b8355505b6001600288020188555050505b50505050505050565b5f81905092915050565b5f81546111bb81610ec0565b6111c581866111a5565b9450600182165f81146111df57600181146111f457611226565b60ff1983168652811515820286019350611226565b6111fd85610f27565b5f5b8381101561121e578154818901526001820191506020810190506111ff565b838801955050505b50505092915050565b828183375f83830152505050565b5f61124883856111a5565b935061125583858461122f565b82840190509392505050565b5f61126c82866111af565b915061127982848661123d565b9150819050949350505050565b61128f82610a8f565b67ffffffffffffffff8111156112a8576112a7610efa565b5b6112b28254610ec0565b6112bd828285611042565b5f60209050601f8311600181146112ee575f84156112dc578287015190505b6112e685826110bd565b86555061134d565b601f1984166112fc86610f27565b5f5b82811015611323578489015182556001820191506020850194506020810190506112fe565b86831015611340578489015161133c601f8916826110a1565b8355505b6001600288020188555050505b505050505050565b7f696e646578206f7574206f6620626f756e6473000000000000000000000000005f82015250565b5f611389601383610bdd565b915061139482611355565b602082019050919050565b5f6020820190508181035f8301526113b68161137d565b9050919050565b7f4e487b71000000000000000000000000000000000000000000000000000000005f52603260045260245ffdfea26469706673582212203463d71c3c12a2776b885e8e53c738da8b48c4462db76554b3c6157b0b13488064736f6c63430008210033","linkReferences":{}},"methodIdentifiers":{"addr()":"767800de","appendDynamicBytes(bytes)":"ae0a81b3","boo()":"4b3df200","c()":"c3da42b8","d()":"8a054ac2","defaultAddr()":"f2427d37","defaultBoo()":"074eef3f","defaultBytes()":"e96b824a","defaultBytes1()":"64da813a","defaultInt()":"5abe622b","defaultString()":"4c00fd84","defaultUint()":"1570c2cb","dynamicByteAt(uint256)":"b2574440","dynamicBytes()":"33ae8158","dynamicBytesLength()":"87f2755e","getLocalDefaults()":"bb28485c","i()":"e5aa3d58","i128()":"0cba40c8","i256()":"4c27fd62","i8()":"921cda74","maxInt()":"7a4c2571","maxUint()":"16a0c5b5","minInt()":"7e4e14cc","payableAddr()":"2537f355","setDynamicBytes(bytes)":"464e28f8","u()":"c6a898c5","u16()":"0a6b4e06","u256()":"459b1acf","u8()":"ab3a58a3"},"id":29}