{"abi":[{"type":"function","name":"set","inputs":[{"name":"_text","type":"string","internalType":"string"},{"name":"_completed","type":"bool","internalType":"bool"}],"outputs":[],"stateMutability":"nonpayable"},{"type":"function","name":"todo","inputs":[],"outputs":[{"name":"text","type":"string","internalType":"string"},{"name":"completed","type":"bool","internalType":"bool"}],"stateMutability":"view"}],"bytecode":{"object":"0x6080604052348015600e575f5ffd5b5061069c8061001c5f395ff3fe608060405234801561000f575f5ffd5b5060043610610034575f3560e01c8063b47f18a114610038578063ba0ff22c14610057575b5f5ffd5b610040610073565b60405161004e929190610235565b60405180910390f35b610071600480360381019061006c91906102f6565b610115565b005b5f805f01805461008290610380565b80601f01602080910402602001604051908101604052809291908181526020018280546100ae90610380565b80156100f95780601f106100d0576101008083540402835291602001916100f9565b820191905f5260205f20905b8154815290600101906020018083116100dc57829003601f168201915b505050505090806001015f9054906101000a900460ff16905082565b604051806040016040528084848080601f0160208091040260200160405190810160405280939291908181526020018383808284375f81840152601f19601f8201169050808301925050505050505081526020018215158152505f5f820151815f0190816101839190610597565b506020820151816001015f6101000a81548160ff021916908315150217905550905050505050565b5f81519050919050565b5f82825260208201905092915050565b8281835e5f83830152505050565b5f601f19601f8301169050919050565b5f6101ed826101ab565b6101f781856101b5565b93506102078185602086016101c5565b610210816101d3565b840191505092915050565b5f8115159050919050565b61022f8161021b565b82525050565b5f6040820190508181035f83015261024d81856101e3565b905061025c6020830184610226565b9392505050565b5f5ffd5b5f5ffd5b5f5ffd5b5f5ffd5b5f5ffd5b5f5f83601f84011261028c5761028b61026b565b5b8235905067ffffffffffffffff8111156102a9576102a861026f565b5b6020830191508360018202830111156102c5576102c4610273565b5b9250929050565b6102d58161021b565b81146102df575f5ffd5b50565b5f813590506102f0816102cc565b92915050565b5f5f5f6040848603121561030d5761030c610263565b5b5f84013567ffffffffffffffff81111561032a57610329610267565b5b61033686828701610277565b93509350506020610349868287016102e2565b9150509250925092565b7f4e487b71000000000000000000000000000000000000000000000000000000005f52602260045260245ffd5b5f600282049050600182168061039757607f821691505b6020821081036103aa576103a9610353565b5b50919050565b7f4e487b71000000000000000000000000000000000000000000000000000000005f52604160045260245ffd5b5f819050815f5260205f209050919050565b5f6020601f8301049050919050565b5f82821b905092915050565b5f600883026104397fffffffffffffffffffffffffffffffffffffffffffffffffffffffffffffffff826103fe565b61044386836103fe565b95508019841693508086168417925050509392505050565b5f819050919050565b5f819050919050565b5f61048761048261047d8461045b565b610464565b61045b565b9050919050565b5f819050919050565b6104a08361046d565b6104b46104ac8261048e565b84845461040a565b825550505050565b5f5f905090565b6104cb6104bc565b6104d6818484610497565b505050565b5f5b828110156104fc576104f15f8284016104c3565b6001810190506104dd565b505050565b601f82111561054f578282111561054e5761051b816103dd565b610524836103ef565b61052d856103ef565b602086101561053a575f90505b808301610549828403826104db565b505050505b5b505050565b5f82821c905092915050565b5f61056f5f1984600802610554565b1980831691505092915050565b5f6105878383610560565b9150826002028217905092915050565b6105a0826101ab565b67ffffffffffffffff8111156105b9576105b86103b0565b5b6105c38254610380565b6105ce828285610501565b5f60209050601f8311600181146105ff575f84156105ed578287015190505b6105f7858261057c565b86555061065e565b601f19841661060d866103dd565b5f5b828110156106345784890151825560018201915060208501945060208101905061060f565b86831015610651578489015161064d601f891682610560565b8355505b6001600288020188555050505b50505050505056fea2646970667358221220083dbb88ca64760d0a6814d775e7a047ca0ac89b74132c061bbe3e2c7a324c8c64736f6c63430008210033","linkReferences":{}},"methodIdentifiers":{"set(string,bool)":"ba0ff22c","todo()":"b47f18a1"},"id":41}