{"abi":[{"type":"function","name":"callMe","inputs":[{"name":"j","type":"uint256","internalType":"uint256"}],"outputs":[],"stateMutability":"nonpayable"},{"type":"function","name":"getData","inputs":[],"outputs":[{"name":"","type":"bytes","internalType":"bytes"}],"stateMutability":"pure"},{"type":"function","name":"i","inputs":[],"outputs":[{"name":"","type":"uint256","internalType":"uint256"}],"stateMutability":"view"}],"bytecode":{"object":"0x6080604052348015600e575f5ffd5b506103678061001c5f395ff3fe608060405234801561000f575f5ffd5b506004361061003f575f3560e01c80633bc5de3014610043578063e5aa3d5814610061578063e73620c31461007f575b5f5ffd5b61004b61009b565b60405161005891906101c0565b60405180910390f35b610069610131565b60405161007691906101f8565b60405180910390f35b6100996004803603810190610094919061023f565b610136565b005b6060607b6040516024016100af91906102b8565b6040516020818303038152906040527fe73620c3000000000000000000000000000000000000000000000000000000007bffffffffffffffffffffffffffffffffffffffffffffffffffffffff19166020820180517bffffffffffffffffffffffffffffffffffffffffffffffffffffffff8381831617835250505050905090565b5f5481565b805f5f82825461014691906102fe565b9250508190555050565b5f81519050919050565b5f82825260208201905092915050565b8281835e5f83830152505050565b5f601f19601f8301169050919050565b5f61019282610150565b61019c818561015a565b93506101ac81856020860161016a565b6101b581610178565b840191505092915050565b5f6020820190508181035f8301526101d88184610188565b905092915050565b5f819050919050565b6101f2816101e0565b82525050565b5f60208201905061020b5f8301846101e9565b92915050565b5f5ffd5b61021e816101e0565b8114610228575f5ffd5b50565b5f8135905061023981610215565b92915050565b5f6020828403121561025457610253610211565b5b5f6102618482850161022b565b91505092915050565b5f819050919050565b5f60ff82169050919050565b5f819050919050565b5f6102a261029d6102988461026a565b61027f565b610273565b9050919050565b6102b281610288565b82525050565b5f6020820190506102cb5f8301846102a9565b92915050565b7f4e487b71000000000000000000000000000000000000000000000000000000005f52601160045260245ffd5b5f610308826101e0565b9150610313836101e0565b925082820190508082111561032b5761032a6102d1565b5b9291505056fea2646970667358221220d9aca1bddb0973335a622c14c2eaccdb7f97e02ea2cb7037c7691412cffbeb6d64736f6c63430008210033","linkReferences":{}},"methodIdentifiers":{"callMe(uint256)":"e73620c3","getData()":"3bc5de30","i()":"e5aa3d58"},"id":84}