{"abi":[{"type":"function","name":"test","inputs":[],"outputs":[],"stateMutability":"nonpayable"},{"type":"function","name":"val","inputs":[],"outputs":[{"name":"","type":"uint256","internalType":"uint256"}],"stateMutability":"view"}],"bytecode":{"object":"0x6080604052348015600e575f5ffd5b506102718061001c5f395ff3fe608060405234801561000f575f5ffd5b5060043610610034575f3560e01c80633c6bb43614610038578063f8a8fd6d14610056575b5f5ffd5b610040610060565b60405161004d9190610142565b60405180910390f35b61005e610065565b005b5f5481565b607b5f819055505f60405180602001604052805f81525090505f3373ffffffffffffffffffffffffffffffffffffffff16826040516100a491906101ad565b5f604051808303815f865af19150503d805f81146100dd576040519150601f19603f3d011682016040523d82523d5f602084013e6100e2565b606091505b5050905080610126576040517f08c379a000000000000000000000000000000000000000000000000000000000815260040161011d9061021d565b60405180910390fd5b5050565b5f819050919050565b61013c8161012a565b82525050565b5f6020820190506101555f830184610133565b92915050565b5f81519050919050565b5f81905092915050565b8281835e5f83830152505050565b5f6101878261015b565b6101918185610165565b93506101a181856020860161016f565b80840191505092915050565b5f6101b8828461017d565b915081905092915050565b5f82825260208201905092915050565b7f63616c6c6261636b206661696c656400000000000000000000000000000000005f82015250565b5f610207600f836101c3565b9150610212826101d3565b602082019050919050565b5f6020820190508181035f830152610234816101fb565b905091905056fea264697066735822122060fade6ff40037e53bb6ad690b6610437c80512df73c9ec41cffe411ad3e5f2064736f6c63430008210033","linkReferences":{}},"methodIdentifiers":{"test()":"f8a8fd6d","val()":"3c6bb436"},"id":49}