{"abi":[{"type":"function","name":"test","inputs":[],"outputs":[],"stateMutability":"nonpayable"},{"type":"function","name":"val","inputs":[],"outputs":[{"name":"v","type":"uint256","internalType":"uint256"}],"stateMutability":"view"}],"bytecode":{"object":"0x6080604052348015600e575f5ffd5b506102728061001c5f395ff3fe608060405234801561000f575f5ffd5b5060043610610034575f3560e01c80633c6bb43614610038578063f8a8fd6d14610056575b5f5ffd5b610040610060565b60405161004d9190610143565b60405180910390f35b61005e610068565b005b5f5f5c905090565b6101415f5d5f60405180602001604052805f81525090505f3373ffffffffffffffffffffffffffffffffffffffff16826040516100a591906101ae565b5f604051808303815f865af19150503d805f81146100de576040519150601f19603f3d011682016040523d82523d5f602084013e6100e3565b606091505b5050905080610127576040517f08c379a000000000000000000000000000000000000000000000000000000000815260040161011e9061021e565b60405180910390fd5b5050565b5f819050919050565b61013d8161012b565b82525050565b5f6020820190506101565f830184610134565b92915050565b5f81519050919050565b5f81905092915050565b8281835e5f83830152505050565b5f6101888261015c565b6101928185610166565b93506101a2818560208601610170565b80840191505092915050565b5f6101b9828461017e565b915081905092915050565b5f82825260208201905092915050565b7f63616c6c6261636b206661696c656400000000000000000000000000000000005f82015250565b5f610208600f836101c4565b9150610213826101d4565b602082019050919050565b5f6020820190508181035f830152610235816101fc565b905091905056fea2646970667358221220e53bf329d35d5861bd01af5c8084dd3aba522cba9eabb545172f3d59e867cb1664736f6c63430008210033","linkReferences":{}},"methodIdentifiers":{"test()":"f8a8fd6d","val()":"3c6bb436"},"id":49}