{"abi":[{"type":"constructor","inputs":[],"stateMutability":"nonpayable"},{"type":"function","name":"getRoot","inputs":[],"outputs":[{"name":"","type":"bytes32","internalType":"bytes32"}],"stateMutability":"view"},{"type":"function","name":"hashes","inputs":[{"name":"","type":"uint256","internalType":"uint256"}],"outputs":[{"name":"","type":"bytes32","internalType":"bytes32"}],"stateMutability":"view"},{"type":"function","name":"verify","inputs":[{"name":"proof","type":"bytes32[]","internalType":"bytes32[]"},{"name":"root","type":"bytes32","internalType":"bytes32"},{"name":"leaf","type":"bytes32","internalType":"bytes32"},{"name":"index","type":"uint256","internalType":"uint256"}],"outputs":[{"name":"","type":"bool","internalType":"bool"}],"stateMutability":"pure"}],"bytecode":{"object":"0x608060405234801561000f575f5ffd5b505f60405180608001604052806040518060400160405280600c81526020017f616c696365202d3e20626f62000000000000000000000000000000000000000081525081526020016040518060400160405280600b81526020017f626f62202d3e206461766500000000000000000000000000000000000000000081525081526020016040518060400160405280600e81526020017f6361726f6c202d3e20616c69636500000000000000000000000000000000000081525081526020016040518060400160405280600b81526020017f64617665202d3e20626f6200000000000000000000000000000000000000000081525081525090505f5f90505b6004811015610185575f82826004811061012a57610129610295565b5b602002015160405160200161013f9190610314565b60405160208183030381529060405280519060200120908060018154018082558091505060019003905f5260205f20015f9091909190915055808060010191505061010d565b505f600490505f5f90505b5f82111561028d575f5f90505b6001836101aa9190610360565b81101561026a575f5f82846101bf9190610393565b815481106101d0576101cf610295565b5b905f5260205f2001545f600184866101e89190610393565b6101f29190610393565b8154811061020357610202610295565b5b905f5260205f20015460405160200161021d9291906103ef565b60405160208183030381529060405280519060200120908060018154018082558091505060019003905f5260205f20015f90919091909150556002816102639190610393565b905061019d565b5081816102779190610393565b90506002826102869190610447565b9150610190565b505050610477565b7f4e487b71000000000000000000000000000000000000000000000000000000005f52603260045260245ffd5b5f81519050919050565b5f81905092915050565b8281835e5f83830152505050565b5f6102ee826102c2565b6102f881856102cc565b93506103088185602086016102d6565b80840191505092915050565b5f61031f82846102e4565b915081905092915050565b5f819050919050565b7f4e487b71000000000000000000000000000000000000000000000000000000005f52601160045260245ffd5b5f61036a8261032a565b91506103758361032a565b925082820390508181111561038d5761038c610333565b5b92915050565b5f61039d8261032a565b91506103a88361032a565b92508282019050808211156103c0576103bf610333565b5b92915050565b5f819050919050565b5f819050919050565b6103e96103e4826103c6565b6103cf565b82525050565b5f6103fa82856103d8565b60208201915061040a82846103d8565b6020820191508190509392505050565b7f4e487b71000000000000000000000000000000000000000000000000000000005f52601260045260245ffd5b5f6104518261032a565b915061045c8361032a565b92508261046c5761046b61041a565b5b828204905092915050565b610646806104845f395ff3fe608060405234801561000f575f5ffd5b506004361061003f575f3560e01c806321fb335c14610043578063501895ae146100735780635ca1e165146100a3575b5f5ffd5b61005d600480360381019061005891906103a5565b6100c1565b60405161006a919061043f565b60405180910390f35b61008d60048036038101906100889190610458565b61018d565b60405161009a9190610492565b60405180910390f35b6100ab6101ac565b6040516100b89190610492565b60405180910390f35b5f5f8390505f5f90505b865181101561017e575f8782815181106100e8576100e76104ab565b5b602002602001015190505f6002866101009190610505565b03610135578281604051602001610118929190610555565b604051602081830303815290604052805190602001209250610161565b8083604051602001610148929190610555565b6040516020818303038152906040528051906020012092505b60028561016e91906105ad565b94505080806001019150506100cb565b50848114915050949350505050565b5f818154811061019b575f80fd5b905f5260205f20015f915090505481565b5f5f60015f805490506101bf91906105dd565b815481106101d0576101cf6104ab565b5b905f5260205f200154905090565b5f604051905090565b5f5ffd5b5f5ffd5b5f5ffd5b5f601f19601f8301169050919050565b7f4e487b71000000000000000000000000000000000000000000000000000000005f52604160045260245ffd5b610239826101f3565b810181811067ffffffffffffffff8211171561025857610257610203565b5b80604052505050565b5f61026a6101de565b90506102768282610230565b919050565b5f67ffffffffffffffff82111561029557610294610203565b5b602082029050602081019050919050565b5f5ffd5b5f819050919050565b6102bc816102aa565b81146102c6575f5ffd5b50565b5f813590506102d7816102b3565b92915050565b5f6102ef6102ea8461027b565b610261565b90508083825260208201905060208402830185811115610312576103116102a6565b5b835b8181101561033b578061032788826102c9565b845260208401935050602081019050610314565b5050509392505050565b5f82601f830112610359576103586101ef565b5b81356103698482602086016102dd565b91505092915050565b5f819050919050565b61038481610372565b811461038e575f5ffd5b50565b5f8135905061039f8161037b565b92915050565b5f5f5f5f608085870312156103bd576103bc6101e7565b5b5f85013567ffffffffffffffff8111156103da576103d96101eb565b5b6103e687828801610345565b94505060206103f7878288016102c9565b9350506040610408878288016102c9565b925050606061041987828801610391565b91505092959194509250565b5f8115159050919050565b61043981610425565b82525050565b5f6020820190506104525f830184610430565b92915050565b5f6020828403121561046d5761046c6101e7565b5b5f61047a84828501610391565b91505092915050565b61048c816102aa565b82525050565b5f6020820190506104a55f830184610483565b92915050565b7f4e487b71000000000000000000000000000000000000000000000000000000005f52603260045260245ffd5b7f4e487b71000000000000000000000000000000000000000000000000000000005f52601260045260245ffd5b5f61050f82610372565b915061051a83610372565b92508261052a576105296104d8565b5b828206905092915050565b5f819050919050565b61054f61054a826102aa565b610535565b82525050565b5f610560828561053e565b602082019150610570828461053e565b6020820191508190509392505050565b7f4e487b71000000000000000000000000000000000000000000000000000000005f52601160045260245ffd5b5f6105b782610372565b91506105c283610372565b9250826105d2576105d16104d8565b5b828204905092915050565b5f6105e782610372565b91506105f283610372565b925082820390508181111561060a57610609610580565b5b9291505056fea264697066735822122017260f184a4e9046e0b9097bd4251e282a88496d0ae36f66418f250031daa38464736f6c63430008210033","linkReferences":{}},"methodIdentifiers":{"getRoot()":"5ca1e165","hashes(uint256)":"501895ae","verify(bytes32[],bytes32,bytes32,uint256)":"21fb335c"},"id":69}