{"abi":[{"type":"function","name":"todos","inputs":[{"name":"","type":"uint256","internalType":"uint256"}],"outputs":[{"name":"text","type":"string","internalType":"string"},{"name":"completed","type":"bool","internalType":"bool"}],"stateMutability":"view"}],"bytecode":{"object":"0x6080604052348015600e575f5ffd5b506102cb8061001c5f395ff3fe608060405234801561000f575f5ffd5b5060043610610029575f3560e01c8063bc8bc2b41461002d575b5f5ffd5b61004760048036038101906100429190610155565b61005e565b60405161005592919061020a565b60405180910390f35b5f818154811061006c575f80fd5b905f5260205f2090600202015f91509050805f01805461008b90610265565b80601f01602080910402602001604051908101604052809291908181526020018280546100b790610265565b80156101025780601f106100d957610100808354040283529160200191610102565b820191905f5260205f20905b8154815290600101906020018083116100e557829003601f168201915b505050505090806001015f9054906101000a900460ff16905082565b5f5ffd5b5f819050919050565b61013481610122565b811461013e575f5ffd5b50565b5f8135905061014f8161012b565b92915050565b5f6020828403121561016a5761016961011e565b5b5f61017784828501610141565b91505092915050565b5f81519050919050565b5f82825260208201905092915050565b8281835e5f83830152505050565b5f601f19601f8301169050919050565b5f6101c282610180565b6101cc818561018a565b93506101dc81856020860161019a565b6101e5816101a8565b840191505092915050565b5f8115159050919050565b610204816101f0565b82525050565b5f6040820190508181035f83015261022281856101b8565b905061023160208301846101fb565b9392505050565b7f4e487b71000000000000000000000000000000000000000000000000000000005f52602260045260245ffd5b5f600282049050600182168061027c57607f821691505b60208210810361028f5761028e610238565b5b5091905056fea26469706673582212205658a6a1d913638d077cdb930dff2c3190470e0ae067592bb0e8abdcc532ebb464736f6c63430008210033","linkReferences":{}},"methodIdentifiers":{"todos(uint256)":"bc8bc2b4"},"id":42}