{"abi":[{"type":"function","name":"create","inputs":[{"name":"_text","type":"string","internalType":"string"}],"outputs":[],"stateMutability":"nonpayable"},{"type":"function","name":"get","inputs":[{"name":"_index","type":"uint256","internalType":"uint256"}],"outputs":[{"name":"text","type":"string","internalType":"string"},{"name":"completed","type":"bool","internalType":"bool"}],"stateMutability":"view"},{"type":"function","name":"todos","inputs":[{"name":"","type":"uint256","internalType":"uint256"}],"outputs":[{"name":"text","type":"string","internalType":"string"},{"name":"completed","type":"bool","internalType":"bool"}],"stateMutability":"view"},{"type":"function","name":"toggleCompleted","inputs":[{"name":"_index","type":"uint256","internalType":"uint256"}],"outputs":[],"stateMutability":"nonpayable"},{"type":"function","name":"updateText","inputs":[{"name":"_index","type":"uint256","internalType":"uint256"},{"name":"_text","type":"string","internalType":"string"}],"outputs":[],"stateMutability":"nonpayable"}],"bytecode":{"object":"0x6080604052348015600e575f5ffd5b50610bd08061001c5f395ff3fe608060405234801561000f575f5ffd5b5060043610610055575f3560e01c8063455f5024146100595780639507d39a14610075578063b6a46b3b146100a6578063bc8bc2b4146100c2578063cd111614146100f3575b5f5ffd5b610073600480360381019061006e91906105a0565b61010f565b005b61008f600480360381019061008a91906105a0565b610161565b60405161009d929190610655565b60405180910390f35b6100c060048036038101906100bb91906106e4565b61022e565b005b6100dc60048036038101906100d791906105a0565b61044f565b6040516100ea929190610655565b60405180910390f35b61010d6004803603810190610108919061072f565b61050f565b005b5f5f82815481106101235761012261078c565b5b905f5260205f2090600202019050806001015f9054906101000a900460ff1615816001015f6101000a81548160ff0219169083151502179055505050565b60605f5f5f84815481106101785761017761078c565b5b905f5260205f2090600202019050805f01816001015f9054906101000a900460ff168180546101a6906107e6565b80601f01602080910402602001604051908101604052809291908181526020018280546101d2906107e6565b801561021d5780601f106101f45761010080835404028352916020019161021d565b820191905f5260205f20905b81548152906001019060200180831161020057829003601f168201915b505050505091509250925050915091565b5f604051806040016040528084848080601f0160208091040260200160405190810160405280939291908181526020018383808284375f81840152601f19601f8201169050808301925050505050505081526020015f1515815250908060018154018082558091505060019003905f5260205f2090600202015f909190919091505f820151815f0190816102c291906109f4565b506020820151816001015f6101000a81548160ff02191690831515021790555050505f604051806040016040528084848080601f0160208091040260200160405190810160405280939291908181526020018383808284375f81840152601f19601f8201169050808301925050505050505081526020015f1515815250908060018154018082558091505060019003905f5260205f2090600202015f909190919091505f820151815f01908161037891906109f4565b506020820151816001015f6101000a81548160ff02191690831515021790555050506103a261054a565b82828080601f0160208091040260200160405190810160405280939291908181526020018383808284375f81840152601f19601f82011690508083019250505050505050815f01819052505f81908060018154018082558091505060019003905f5260205f2090600202015f909190919091505f820151815f01908161042891906109f4565b506020820151816001015f6101000a81548160ff0219169083151502179055505050505050565b5f818154811061045d575f80fd5b905f5260205f2090600202015f91509050805f01805461047c906107e6565b80601f01602080910402602001604051908101604052809291908181526020018280546104a8906107e6565b80156104f35780601f106104ca576101008083540402835291602001916104f3565b820191905f5260205f20905b8154815290600101906020018083116104d657829003601f168201915b505050505090806001015f9054906101000a900460ff16905082565b5f5f84815481106105235761052261078c565b5b905f5260205f20906002020190508282825f019182610543929190610acd565b5050505050565b6040518060400160405280606081526020015f151581525090565b5f5ffd5b5f5ffd5b5f819050919050565b61057f8161056d565b8114610589575f5ffd5b50565b5f8135905061059a81610576565b92915050565b5f602082840312156105b5576105b4610565565b5b5f6105c28482850161058c565b91505092915050565b5f81519050919050565b5f82825260208201905092915050565b8281835e5f83830152505050565b5f601f19601f8301169050919050565b5f61060d826105cb565b61061781856105d5565b93506106278185602086016105e5565b610630816105f3565b840191505092915050565b5f8115159050919050565b61064f8161063b565b82525050565b5f6040820190508181035f83015261066d8185610603565b905061067c6020830184610646565b9392505050565b5f5ffd5b5f5ffd5b5f5ffd5b5f5f83601f8401126106a4576106a3610683565b5b8235905067ffffffffffffffff8111156106c1576106c0610687565b5b6020830191508360018202830111156106dd576106dc61068b565b5b9250929050565b5f5f602083850312156106fa576106f9610565565b5b5f83013567ffffffffffffffff81111561071757610716610569565b5b6107238582860161068f565b92509250509250929050565b5f5f5f6040848603121561074657610745610565565b5b5f6107538682870161058c565b935050602084013567ffffffffffffffff81111561077457610773610569565b5b6107808682870161068f565b92509250509250925092565b7f4e487b71000000000000000000000000000000000000000000000000000000005f52603260045260245ffd5b7f4e487b71000000000000000000000000000000000000000000000000000000005f52602260045260245ffd5b5f60028204905060018216806107fd57607f821691505b6020821081036108105761080f6107b9565b5b50919050565b7f4e487b71000000000000000000000000000000000000000000000000000000005f52604160045260245ffd5b5f819050815f5260205f209050919050565b5f6020601f8301049050919050565b5f82821b905092915050565b5f6008830261089f7fffffffffffffffffffffffffffffffffffffffffffffffffffffffffffffffff82610864565b6108a98683610864565b95508019841693508086168417925050509392505050565b5f819050919050565b5f6108e46108df6108da8461056d565b6108c1565b61056d565b9050919050565b5f819050919050565b6108fd836108ca565b610911610909826108eb565b848454610870565b825550505050565b5f5f905090565b610928610919565b6109338184846108f4565b505050565b5f5b828110156109595761094e5f828401610920565b60018101905061093a565b505050565b601f8211156109ac57828211156109ab5761097881610843565b61098183610855565b61098a85610855565b6020861015610997575f90505b8083016109a682840382610938565b505050505b5b505050565b5f82821c905092915050565b5f6109cc5f19846008026109b1565b1980831691505092915050565b5f6109e483836109bd565b9150826002028217905092915050565b6109fd826105cb565b67ffffffffffffffff811115610a1657610a15610816565b5b610a2082546107e6565b610a2b82828561095e565b5f60209050601f831160018114610a5c575f8415610a4a578287015190505b610a5485826109d9565b865550610abb565b601f198416610a6a86610843565b5f5b82811015610a9157848901518255600182019150602085019450602081019050610a6c565b86831015610aae5784890151610aaa601f8916826109bd565b8355505b6001600288020188555050505b505050505050565b5f82905092915050565b610ad78383610ac3565b67ffffffffffffffff811115610af057610aef610816565b5b610afa82546107e6565b610b0582828561095e565b5f601f831160018114610b32575f8415610b20578287013590505b610b2a85826109d9565b865550610b91565b601f198416610b4086610843565b5f5b82811015610b6757848901358255600182019150602085019450602081019050610b42565b86831015610b845784890135610b80601f8916826109bd565b8355505b6001600288020188555050505b5050505050505056fea2646970667358221220845370c94fecdedd7dcd0b8709fee6712efc7d7af2c327fec87d16d74809453164736f6c63430008210033","linkReferences":{}},"methodIdentifiers":{"create(string)":"b6a46b3b","get(uint256)":"9507d39a","todos(uint256)":"bc8bc2b4","toggleCompleted(uint256)":"455f5024","updateText(uint256,string)":"cd111614"},"id":46}