{"abi":[{"type":"function","name":"add","inputs":[{"name":"x","type":"uint256","internalType":"uint256"},{"name":"y","type":"uint256","internalType":"uint256"}],"outputs":[{"name":"","type":"uint256","internalType":"uint256"}],"stateMutability":"pure"},{"type":"function","name":"sub","inputs":[{"name":"x","type":"uint256","internalType":"uint256"},{"name":"y","type":"uint256","internalType":"uint256"}],"outputs":[{"name":"","type":"uint256","internalType":"uint256"}],"stateMutability":"pure"},{"type":"function","name":"sumOfCubes","inputs":[{"name":"x","type":"uint256","internalType":"uint256"},{"name":"y","type":"uint256","internalType":"uint256"}],"outputs":[{"name":"","type":"uint256","internalType":"uint256"}],"stateMutability":"pure"}],"bytecode":{"object":"0x6080604052348015600e575f5ffd5b506101dc8061001c5f395ff3fe608060405234801561000f575f5ffd5b506004361061003f575f3560e01c8063771602f714610043578063a2138e6714610073578063b67d77c5146100a3575b5f5ffd5b61005d60048036038101906100589190610140565b6100d3565b60405161006a919061018d565b60405180910390f35b61008d60048036038101906100889190610140565b6100df565b60405161009a919061018d565b60405180910390f35b6100bd60048036038101906100b89190610140565b6100fd565b6040516100ca919061018d565b60405180910390f35b5f818301905092915050565b5f5f838485020290505f838485020290508082019250505092915050565b5f818303905092915050565b5f5ffd5b5f819050919050565b61011f8161010d565b8114610129575f5ffd5b50565b5f8135905061013a81610116565b92915050565b5f5f6040838503121561015657610155610109565b5b5f6101638582860161012c565b92505060206101748582860161012c565b9150509250929050565b6101878161010d565b82525050565b5f6020820190506101a05f83018461017e565b9291505056fea2646970667358221220afa0de4f88388d1c4ce4dbd51890284e83753fb59fba43fcac938c67026f4ca664736f6c63430008210033","linkReferences":{}},"methodIdentifiers":{"add(uint256,uint256)":"771602f7","sub(uint256,uint256)":"b67d77c5","sumOfCubes(uint256,uint256)":"a2138e67"},"id":87}