{"abi":[{"type":"function","name":"doSomething","inputs":[],"outputs":[],"stateMutability":"view"},{"type":"function","name":"num","inputs":[],"outputs":[{"name":"","type":"uint256","internalType":"uint256"}],"stateMutability":"view"},{"type":"function","name":"text","inputs":[],"outputs":[{"name":"","type":"string","internalType":"string"}],"stateMutability":"view"}],"bytecode":{"object":"0x60806040526040518060400160405280600581526020017f48656c6c6f0000000000000000000000000000000000000000000000000000008152505f908161004791906102ac565b50607b600155348015610058575f5ffd5b5061037b565b5f81519050919050565b7f4e487b71000000000000000000000000000000000000000000000000000000005f52604160045260245ffd5b7f4e487b71000000000000000000000000000000000000000000000000000000005f52602260045260245ffd5b5f60028204905060018216806100d957607f821691505b6020821081036100ec576100eb610095565b5b50919050565b5f819050815f5260205f209050919050565b5f6020601f8301049050919050565b5f82821b905092915050565b5f6008830261014e7fffffffffffffffffffffffffffffffffffffffffffffffffffffffffffffffff82610113565b6101588683610113565b95508019841693508086168417925050509392505050565b5f819050919050565b5f819050919050565b5f61019c61019761019284610170565b610179565b610170565b9050919050565b5f819050919050565b6101b583610182565b6101c96101c1826101a3565b84845461011f565b825550505050565b5f5f905090565b6101e06101d1565b6101eb8184846101ac565b505050565b5f5b82811015610211576102065f8284016101d8565b6001810190506101f2565b505050565b601f821115610264578282111561026357610230816100f2565b61023983610104565b61024285610104565b602086101561024f575f90505b80830161025e828403826101f0565b505050505b5b505050565b5f82821c905092915050565b5f6102845f1984600802610269565b1980831691505092915050565b5f61029c8383610275565b9150826002028217905092915050565b6102b58261005e565b67ffffffffffffffff8111156102ce576102cd610068565b5b6102d882546100c2565b6102e3828285610216565b5f60209050601f831160018114610314575f8415610302578287015190505b61030c8582610291565b865550610373565b601f198416610322866100f2565b5f5b8281101561034957848901518255600182019150602085019450602081019050610324565b868310156103665784890151610362601f891682610275565b8355505b6001600288020188555050505b505050505050565b610281806103885f395ff3fe608060405234801561000f575f5ffd5b506004361061003f575f3560e01c80631f1bd692146100435780634e70b1dc14610061578063826926791461007f575b5f5ffd5b61004b610089565b604051610058919061019d565b60405180910390f35b610069610114565b60405161007691906101d5565b60405180910390f35b61008761011a565b005b5f80546100959061021b565b80601f01602080910402602001604051908101604052809291908181526020018280546100c19061021b565b801561010c5780601f106100e35761010080835404028352916020019161010c565b820191905f5260205f20905b8154815290600101906020018083116100ef57829003601f168201915b505050505081565b60015481565b5f6101c890505f4290505f339050505050565b5f81519050919050565b5f82825260208201905092915050565b8281835e5f83830152505050565b5f601f19601f8301169050919050565b5f61016f8261012d565b6101798185610137565b9350610189818560208601610147565b61019281610155565b840191505092915050565b5f6020820190508181035f8301526101b58184610165565b905092915050565b5f819050919050565b6101cf816101bd565b82525050565b5f6020820190506101e85f8301846101c6565b92915050565b7f4e487b71000000000000000000000000000000000000000000000000000000005f52602260045260245ffd5b5f600282049050600182168061023257607f821691505b602082108103610245576102446101ee565b5b5091905056fea26469706673582212209a3959d9c82194d087d140cda16544ade5f523c2cab49233aeefa740848ffc7464736f6c63430008210033","linkReferences":{}},"methodIdentifiers":{"doSomething()":"82692679","num()":"4e70b1dc","text()":"1f1bd692"},"id":45}