{"abi":[{"type":"function","name":"add","inputs":[{"name":"i","type":"uint256","internalType":"uint256"},{"name":"j","type":"uint256","internalType":"uint256"}],"outputs":[{"name":"","type":"uint256","internalType":"uint256"}],"stateMutability":"pure"},{"type":"function","name":"addToX","inputs":[{"name":"y","type":"uint256","internalType":"uint256"}],"outputs":[{"name":"","type":"uint256","internalType":"uint256"}],"stateMutability":"view"},{"type":"function","name":"x","inputs":[],"outputs":[{"name":"","type":"uint256","internalType":"uint256"}],"stateMutability":"view"}],"bytecode":{"object":"0x608060405260015f553480156012575f5ffd5b5061024e806100205f395ff3fe608060405234801561000f575f5ffd5b506004361061003f575f3560e01c80630c55699c146100435780635965da7714610061578063771602f714610091575b5f5ffd5b61004b6100c1565b6040516100589190610108565b60405180910390f35b61007b6004803603810190610076919061014f565b6100c6565b6040516100889190610108565b60405180910390f35b6100ab60048036038101906100a6919061017a565b6100db565b6040516100b89190610108565b60405180910390f35b5f5481565b5f815f546100d491906101e5565b9050919050565b5f81836100e891906101e5565b905092915050565b5f819050919050565b610102816100f0565b82525050565b5f60208201905061011b5f8301846100f9565b92915050565b5f5ffd5b61012e816100f0565b8114610138575f5ffd5b50565b5f8135905061014981610125565b92915050565b5f6020828403121561016457610163610121565b5b5f6101718482850161013b565b91505092915050565b5f5f604083850312156101905761018f610121565b5b5f61019d8582860161013b565b92505060206101ae8582860161013b565b9150509250929050565b7f4e487b71000000000000000000000000000000000000000000000000000000005f52601160045260245ffd5b5f6101ef826100f0565b91506101fa836100f0565b9250828201905080821115610212576102116101b8565b5b9291505056fea2646970667358221220e27ceca94a13dadea2a27977cf10d9f4b81c0e1f1ff304868458404cf4230e3a64736f6c63430008210033","linkReferences":{}},"methodIdentifiers":{"add(uint256,uint256)":"771602f7","addToX(uint256)":"5965da77","x()":"0c55699c"},"id":51}