{"abi":[{"type":"function","name":"callFunc","inputs":[],"outputs":[{"name":"","type":"uint256","internalType":"uint256"}],"stateMutability":"pure"},{"type":"function","name":"callFuncWithKeyValue","inputs":[],"outputs":[{"name":"","type":"uint256","internalType":"uint256"}],"stateMutability":"pure"},{"type":"function","name":"someFuncWithManyInputs","inputs":[{"name":"x","type":"uint256","internalType":"uint256"},{"name":"y","type":"uint256","internalType":"uint256"},{"name":"z","type":"uint256","internalType":"uint256"},{"name":"a","type":"address","internalType":"address"},{"name":"b","type":"bool","internalType":"bool"},{"name":"c","type":"string","internalType":"string"}],"outputs":[{"name":"","type":"uint256","internalType":"uint256"}],"stateMutability":"pure"}],"bytecode":{"object":"0x6080604052348015600e575f5ffd5b506104668061001c5f395ff3fe608060405234801561000f575f5ffd5b506004361061003f575f3560e01c8063127b4e081461004357806372057987146100735780639a7846b914610091575b5f5ffd5b61005d60048036038101906100589190610363565b6100af565b60405161006a9190610417565b60405180910390f35b61007b6100ba565b6040516100889190610417565b60405180910390f35b610099610107565b6040516100a69190610417565b60405180910390f35b5f9695505050505050565b5f6101026001600260035f60016040518060400160405280600181526020017f63000000000000000000000000000000000000000000000000000000000000008152506100af565b905090565b5f61014f6001600260035f60016040518060400160405280600181526020017f63000000000000000000000000000000000000000000000000000000000000008152506100af565b905090565b5f604051905090565b5f5ffd5b5f5ffd5b5f819050919050565b61017781610165565b8114610181575f5ffd5b50565b5f813590506101928161016e565b92915050565b5f73ffffffffffffffffffffffffffffffffffffffff82169050919050565b5f6101c182610198565b9050919050565b6101d1816101b7565b81146101db575f5ffd5b50565b5f813590506101ec816101c8565b92915050565b5f8115159050919050565b610206816101f2565b8114610210575f5ffd5b50565b5f81359050610221816101fd565b92915050565b5f5ffd5b5f5ffd5b5f601f19601f8301169050919050565b7f4e487b71000000000000000000000000000000000000000000000000000000005f52604160045260245ffd5b6102758261022f565b810181811067ffffffffffffffff821117156102945761029361023f565b5b80604052505050565b5f6102a6610154565b90506102b2828261026c565b919050565b5f67ffffffffffffffff8211156102d1576102d061023f565b5b6102da8261022f565b9050602081019050919050565b828183375f83830152505050565b5f610307610302846102b7565b61029d565b9050828152602081018484840111156103235761032261022b565b5b61032e8482856102e7565b509392505050565b5f82601f83011261034a57610349610227565b5b813561035a8482602086016102f5565b91505092915050565b5f5f5f5f5f5f60c0878903121561037d5761037c61015d565b5b5f61038a89828a01610184565b965050602061039b89828a01610184565b95505060406103ac89828a01610184565b94505060606103bd89828a016101de565b93505060806103ce89828a01610213565b92505060a087013567ffffffffffffffff8111156103ef576103ee610161565b5b6103fb89828a01610336565b9150509295509295509295565b61041181610165565b82525050565b5f60208201905061042a5f830184610408565b9291505056fea26469706673582212209ba71a4c1db91c325e36d7338c4e7a9b5624d330ac7291e3df84f1930a2ef6ef64736f6c63430008210033","linkReferences":{}},"methodIdentifiers":{"callFunc()":"9a7846b9","callFuncWithKeyValue()":"72057987","someFuncWithManyInputs(uint256,uint256,uint256,address,bool,string)":"127b4e08"},"id":37}