{"abi":[{"type":"function","name":"increment","inputs":[],"outputs":[],"stateMutability":"nonpayable"},{"type":"function","name":"number","inputs":[],"outputs":[{"name":"","type":"uint256","internalType":"uint256"}],"stateMutability":"view"},{"type":"function","name":"readDogInfo","inputs":[{"name":"dogAddr","type":"address","internalType":"address"}],"outputs":[{"name":"species","type":"string","internalType":"string"},{"name":"sound","type":"string","internalType":"string"}],"stateMutability":"view"},{"type":"function","name":"setNumber","inputs":[{"name":"newNumber","type":"uint256","internalType":"uint256"}],"outputs":[],"stateMutability":"nonpayable"},{"type":"function","name":"syncNumberFromHusky","inputs":[{"name":"huskyAddr","type":"address","internalType":"address"}],"outputs":[],"stateMutability":"nonpayable"},{"type":"function","name":"syncNumberFromShepherd","inputs":[{"name":"shepherdAddr","type":"address","internalType":"address"}],"outputs":[],"stateMutability":"nonpayable"}],"bytecode":{"object":"0x6080604052348015600e575f5ffd5b506109ac8061001c5f395ff3fe608060405234801561000f575f5ffd5b5060043610610060575f3560e01c806303e2a40c146100645780633fb5c1cb146100955780638381f58a146100b15780639a79f34b146100cf578063c8b1bcc4146100eb578063d09de08a14610107575b5f5ffd5b61007e600480360381019061007991906104d0565b610111565b60405161008c92919061056b565b60405180910390f35b6100af60048036038101906100aa91906105d3565b610270565b005b6100b9610279565b6040516100c6919061060d565b60405180910390f35b6100e960048036038101906100e491906104d0565b61027e565b005b610105600480360381019061010091906104d0565b61036a565b005b61010f61044d565b005b6060805f73ffffffffffffffffffffffffffffffffffffffff168373ffffffffffffffffffffffffffffffffffffffff1603610182576040517f08c379a000000000000000000000000000000000000000000000000000000000815260040161017990610670565b60405180910390fd5b5f8390508073ffffffffffffffffffffffffffffffffffffffff16639dd807b16040518163ffffffff1660e01b81526004015f60405180830381865afa1580156101ce573d5f5f3e3d5ffd5b505050506040513d5f823e3d601f19601f820116820180604052508101906101f691906107ac565b92508073ffffffffffffffffffffffffffffffffffffffff1663ab117c3e6040518163ffffffff1660e01b81526004015f60405180830381865afa158015610240573d5f5f3e3d5ffd5b505050506040513d5f823e3d601f19601f8201168201806040525081019061026891906107ac565b915050915091565b805f8190555050565b5f5481565b5f73ffffffffffffffffffffffffffffffffffffffff168173ffffffffffffffffffffffffffffffffffffffff16036102ec576040517f08c379a00000000000000000000000000000000000000000000000000000000081526004016102e39061083d565b60405180910390fd5b5f8173ffffffffffffffffffffffffffffffffffffffff1663ab1223066040518163ffffffff1660e01b81526004015f60405180830381865afa158015610335573d5f5f3e3d5ffd5b505050506040513d5f823e3d601f19601f8201168201806040525081019061035d91906107ac565b905080515f819055505050565b5f73ffffffffffffffffffffffffffffffffffffffff168173ffffffffffffffffffffffffffffffffffffffff16036103d8576040517f08c379a00000000000000000000000000000000000000000000000000000000081526004016103cf906108a5565b60405180910390fd5b8073ffffffffffffffffffffffffffffffffffffffff16632fb6b6c86040518163ffffffff1660e01b8152600401602060405180830381865afa158015610421573d5f5f3e3d5ffd5b505050506040513d601f19601f8201168201806040525081019061044591906108d7565b5f8190555050565b5f5f81548092919061045e9061092f565b9190505550565b5f604051905090565b5f5ffd5b5f5ffd5b5f73ffffffffffffffffffffffffffffffffffffffff82169050919050565b5f61049f82610476565b9050919050565b6104af81610495565b81146104b9575f5ffd5b50565b5f813590506104ca816104a6565b92915050565b5f602082840312156104e5576104e461046e565b5b5f6104f2848285016104bc565b91505092915050565b5f81519050919050565b5f82825260208201905092915050565b8281835e5f83830152505050565b5f601f19601f8301169050919050565b5f61053d826104fb565b6105478185610505565b9350610557818560208601610515565b61056081610523565b840191505092915050565b5f6040820190508181035f8301526105838185610533565b905081810360208301526105978184610533565b90509392505050565b5f819050919050565b6105b2816105a0565b81146105bc575f5ffd5b50565b5f813590506105cd816105a9565b92915050565b5f602082840312156105e8576105e761046e565b5b5f6105f5848285016105bf565b91505092915050565b610607816105a0565b82525050565b5f6020820190506106205f8301846105fe565b92915050565b7f646f67206973207a65726f0000000000000000000000000000000000000000005f82015250565b5f61065a600b83610505565b915061066582610626565b602082019050919050565b5f6020820190508181035f8301526106878161064e565b9050919050565b5f5ffd5b5f5ffd5b7f4e487b71000000000000000000000000000000000000000000000000000000005f52604160045260245ffd5b6106cc82610523565b810181811067ffffffffffffffff821117156106eb576106ea610696565b5b80604052505050565b5f6106fd610465565b905061070982826106c3565b919050565b5f67ffffffffffffffff82111561072857610727610696565b5b61073182610523565b9050602081019050919050565b5f61075061074b8461070e565b6106f4565b90508281526020810184848401111561076c5761076b610692565b5b610777848285610515565b509392505050565b5f82601f8301126107935761079261068e565b5b81516107a384826020860161073e565b91505092915050565b5f602082840312156107c1576107c061046e565b5b5f82015167ffffffffffffffff8111156107de576107dd610472565b5b6107ea8482850161077f565b91505092915050565b7f6875736b79206973207a65726f000000000000000000000000000000000000005f82015250565b5f610827600d83610505565b9150610832826107f3565b602082019050919050565b5f6020820190508181035f8301526108548161081b565b9050919050565b7f7368657068657264206973207a65726f000000000000000000000000000000005f82015250565b5f61088f601083610505565b915061089a8261085b565b602082019050919050565b5f6020820190508181035f8301526108bc81610883565b9050919050565b5f815190506108d1816105a9565b92915050565b5f602082840312156108ec576108eb61046e565b5b5f6108f9848285016108c3565b91505092915050565b7f4e487b71000000000000000000000000000000000000000000000000000000005f52601160045260245ffd5b5f610939826105a0565b91507fffffffffffffffffffffffffffffffffffffffffffffffffffffffffffffffff820361096b5761096a610902565b5b60018201905091905056fea26469706673582212204bc842b99edad7584f5d3711c9dac0ac61acc8c63abc6e55bbd53dc6f1ebfc3c64736f6c63430008210033","linkReferences":{}},"methodIdentifiers":{"increment()":"d09de08a","number()":"8381f58a","readDogInfo(address)":"03e2a40c","setNumber(uint256)":"3fb5c1cb","syncNumberFromHusky(address)":"9a79f34b","syncNumberFromShepherd(address)":"c8b1bcc4"},"id":21}