{"abi":[{"type":"function","name":"makeSound","inputs":[],"outputs":[{"name":"","type":"string","internalType":"string"}],"stateMutability":"pure"},{"type":"function","name":"move","inputs":[],"outputs":[{"name":"","type":"string","internalType":"string"}],"stateMutability":"pure"},{"type":"function","name":"sleep","inputs":[],"outputs":[{"name":"","type":"string","internalType":"string"}],"stateMutability":"pure"},{"type":"function","name":"species","inputs":[],"outputs":[{"name":"","type":"string","internalType":"string"}],"stateMutability":"view"}],"bytecode":{"object":"0x608060405234801561000f575f5ffd5b506040518060400160405280600681526020017f43616e696e650000000000000000000000000000000000000000000000000000815250805f908161005491906102a9565b5050610378565b5f81519050919050565b7f4e487b71000000000000000000000000000000000000000000000000000000005f52604160045260245ffd5b7f4e487b71000000000000000000000000000000000000000000000000000000005f52602260045260245ffd5b5f60028204905060018216806100d657607f821691505b6020821081036100e9576100e8610092565b5b50919050565b5f819050815f5260205f209050919050565b5f6020601f8301049050919050565b5f82821b905092915050565b5f6008830261014b7fffffffffffffffffffffffffffffffffffffffffffffffffffffffffffffffff82610110565b6101558683610110565b95508019841693508086168417925050509392505050565b5f819050919050565b5f819050919050565b5f61019961019461018f8461016d565b610176565b61016d565b9050919050565b5f819050919050565b6101b28361017f565b6101c66101be826101a0565b84845461011c565b825550505050565b5f5f905090565b6101dd6101ce565b6101e88184846101a9565b505050565b5f5b8281101561020e576102035f8284016101d5565b6001810190506101ef565b505050565b601f82111561026157828211156102605761022d816100ef565b61023683610101565b61023f85610101565b602086101561024c575f90505b80830161025b828403826101ed565b505050505b5b505050565b5f82821c905092915050565b5f6102815f1984600802610266565b1980831691505092915050565b5f6102998383610272565b9150826002028217905092915050565b6102b28261005b565b67ffffffffffffffff8111156102cb576102ca610065565b5b6102d582546100bf565b6102e0828285610213565b5f60209050601f831160018114610311575f84156102ff578287015190505b610309858261028e565b865550610370565b601f19841661031f866100ef565b5f5b8281101561034657848901518255600182019150602085019450602081019050610321565b86831015610363578489015161035f601f891682610272565b8355505b6001600288020188555050505b505050505050565b61032b806103855f395ff3fe608060405234801561000f575f5ffd5b506004361061004a575f3560e01c8063133a473e1461004e5780633ec48a2e1461006c5780639dd807b11461008a578063ab117c3e146100a8575b5f5ffd5b6100566100c6565b6040516100639190610278565b60405180910390f35b610074610103565b6040516100819190610278565b60405180910390f35b610092610140565b60405161009f9190610278565b60405180910390f35b6100b06101cb565b6040516100bd9190610278565b60405180910390f35b60606040518060400160405280600681526020017f5a7a7a2e2e2e0000000000000000000000000000000000000000000000000000815250905090565b60606040518060400160405280601481526020017f52756e6e696e67206f6e20666f7572206c656773000000000000000000000000815250905090565b5f805461014c906102c5565b80601f0160208091040260200160405190810160405280929190818152602001828054610178906102c5565b80156101c35780601f1061019a576101008083540402835291602001916101c3565b820191905f5260205f20905b8154815290600101906020018083116101a657829003601f168201915b505050505081565b60606040518060400160405280600581526020017f576f6f6621000000000000000000000000000000000000000000000000000000815250905090565b5f81519050919050565b5f82825260208201905092915050565b8281835e5f83830152505050565b5f601f19601f8301169050919050565b5f61024a82610208565b6102548185610212565b9350610264818560208601610222565b61026d81610230565b840191505092915050565b5f6020820190508181035f8301526102908184610240565b905092915050565b7f4e487b71000000000000000000000000000000000000000000000000000000005f52602260045260245ffd5b5f60028204905060018216806102dc57607f821691505b6020821081036102ef576102ee610298565b5b5091905056fea2646970667358221220b005682bb5c140ea35015ec5f880bedf1d19eb4bbd6f7717b446b8d2274cb11464736f6c63430008210033","linkReferences":{}},"methodIdentifiers":{"makeSound()":"ab117c3e","move()":"3ec48a2e","sleep()":"133a473e","species()":"9dd807b1"},"id":0}