{"abi":[{"type":"constructor","inputs":[],"stateMutability":"nonpayable"},{"type":"function","name":"baseStatus","inputs":[],"outputs":[{"name":"","type":"string","internalType":"string"}],"stateMutability":"pure"},{"type":"function","name":"sensorType","inputs":[],"outputs":[{"name":"","type":"string","internalType":"string"}],"stateMutability":"view"},{"type":"function","name":"trackTarget","inputs":[],"outputs":[{"name":"","type":"string","internalType":"string"}],"stateMutability":"pure"},{"type":"function","name":"trackingStyle","inputs":[],"outputs":[{"name":"","type":"string","internalType":"string"}],"stateMutability":"pure"}],"bytecode":{"object":"0x608060405234801561000f575f5ffd5b506040518060400160405280600881526020017f696e667261726564000000000000000000000000000000000000000000000000815250805f908161005491906102a9565b5050610378565b5f81519050919050565b7f4e487b71000000000000000000000000000000000000000000000000000000005f52604160045260245ffd5b7f4e487b71000000000000000000000000000000000000000000000000000000005f52602260045260245ffd5b5f60028204905060018216806100d657607f821691505b6020821081036100e9576100e8610092565b5b50919050565b5f819050815f5260205f209050919050565b5f6020601f8301049050919050565b5f82821b905092915050565b5f6008830261014b7fffffffffffffffffffffffffffffffffffffffffffffffffffffffffffffffff82610110565b6101558683610110565b95508019841693508086168417925050509392505050565b5f819050919050565b5f819050919050565b5f61019961019461018f8461016d565b610176565b61016d565b9050919050565b5f819050919050565b6101b28361017f565b6101c66101be826101a0565b84845461011c565b825550505050565b5f5f905090565b6101dd6101ce565b6101e88184846101a9565b505050565b5f5b8281101561020e576102035f8284016101d5565b6001810190506101ef565b505050565b601f82111561026157828211156102605761022d816100ef565b61023683610101565b61023f85610101565b602086101561024c575f90505b80830161025b828403826101ed565b505050505b5b505050565b5f82821c905092915050565b5f6102815f1984600802610266565b1980831691505092915050565b5f6102998383610272565b9150826002028217905092915050565b6102b28261005b565b67ffffffffffffffff8111156102cb576102ca610065565b5b6102d582546100bf565b6102e0828285610213565b5f60209050601f831160018114610311575f84156102ff578287015190505b610309858261028e565b865550610370565b601f19841661031f866100ef565b5f5b8281101561034657848901518255600182019150602085019450602081019050610321565b86831015610363578489015161035f601f891682610272565b8355505b6001600288020188555050505b505050505050565b61032f806103855f395ff3fe608060405234801561000f575f5ffd5b506004361061004a575f3560e01c80636b8519fa1461004e57806391ff9c941461006c578063ab1223061461008a578063fc8d4a59146100a8575b5f5ffd5b6100566100c6565b604051610063919061027c565b60405180910390f35b610074610103565b604051610081919061027c565b60405180910390f35b610092610140565b60405161009f919061027c565b60405180910390f35b6100b061017d565b6040516100bd919061027c565b60405180910390f35b60606040518060400160405280601381526020017f747261636b696e672d626173652d726561647900000000000000000000000000815250905090565b60606040518060400160405280600f81526020017f67726f756e642d736e696666696e670000000000000000000000000000000000815250905090565b60606040518060400160405280601681526020017f746172676574206c6f636b6564206279206875736b7900000000000000000000815250905090565b60605f805461018b906102c9565b80601f01602080910402602001604051908101604052809291908181526020018280546101b7906102c9565b80156102025780601f106101d957610100808354040283529160200191610202565b820191905f5260205f20905b8154815290600101906020018083116101e557829003601f168201915b5050505050905090565b5f81519050919050565b5f82825260208201905092915050565b8281835e5f83830152505050565b5f601f19601f8301169050919050565b5f61024e8261020c565b6102588185610216565b9350610268818560208601610226565b61027181610234565b840191505092915050565b5f6020820190508181035f8301526102948184610244565b905092915050565b7f4e487b71000000000000000000000000000000000000000000000000000000005f52602260045260245ffd5b5f60028204905060018216806102e057607f821691505b6020821081036102f3576102f261029c565b5b5091905056fea26469706673582212204619309883fd6113e0923548b14c351d50d7cb8962bd4ff5a16bb2d90f38f7c064736f6c63430008210033","linkReferences":{}},"methodIdentifiers":{"baseStatus()":"6b8519fa","sensorType()":"fc8d4a59","trackTarget()":"ab122306","trackingStyle()":"91ff9c94"},"id":0}