{"abi":[{"type":"constructor","inputs":[],"stateMutability":"nonpayable"},{"type":"function","name":"profile","inputs":[],"outputs":[{"name":"","type":"string","internalType":"string"},{"name":"","type":"uint256","internalType":"uint256"}],"stateMutability":"view"},{"type":"function","name":"sleep","inputs":[],"outputs":[{"name":"","type":"string","internalType":"string"}],"stateMutability":"pure"},{"type":"function","name":"sound","inputs":[],"outputs":[{"name":"","type":"string","internalType":"string"}],"stateMutability":"pure"},{"type":"function","name":"stepsPerMinute","inputs":[],"outputs":[{"name":"","type":"uint256","internalType":"uint256"}],"stateMutability":"pure"},{"type":"function","name":"walk","inputs":[],"outputs":[{"name":"","type":"string","internalType":"string"}],"stateMutability":"pure"}],"bytecode":{"object":"0x608060405234801561000f575f5ffd5b506040518060400160405280600881526020017f53686570686572640000000000000000000000000000000000000000000000008152506002815f908161005691906102b3565b50806001819055505050610382565b5f81519050919050565b7f4e487b71000000000000000000000000000000000000000000000000000000005f52604160045260245ffd5b7f4e487b71000000000000000000000000000000000000000000000000000000005f52602260045260245ffd5b5f60028204905060018216806100e057607f821691505b6020821081036100f3576100f261009c565b5b50919050565b5f819050815f5260205f209050919050565b5f6020601f8301049050919050565b5f82821b905092915050565b5f600883026101557fffffffffffffffffffffffffffffffffffffffffffffffffffffffffffffffff8261011a565b61015f868361011a565b95508019841693508086168417925050509392505050565b5f819050919050565b5f819050919050565b5f6101a361019e61019984610177565b610180565b610177565b9050919050565b5f819050919050565b6101bc83610189565b6101d06101c8826101aa565b848454610126565b825550505050565b5f5f905090565b6101e76101d8565b6101f28184846101b3565b505050565b5f5b828110156102185761020d5f8284016101df565b6001810190506101f9565b505050565b601f82111561026b578282111561026a57610237816100f9565b6102408361010b565b6102498561010b565b6020861015610256575f90505b808301610265828403826101f7565b505050505b5b505050565b5f82821c905092915050565b5f61028b5f1984600802610270565b1980831691505092915050565b5f6102a3838361027c565b9150826002028217905092915050565b6102bc82610065565b67ffffffffffffffff8111156102d5576102d461006f565b5b6102df82546100c9565b6102ea82828561021d565b5f60209050601f83116001811461031b575f8415610309578287015190505b6103138582610298565b86555061037a565b601f198416610329866100f9565b5f5b828110156103505784890151825560018201915060208501945060208101905061032b565b8683101561036d5784890151610369601f89168261027c565b8355505b6001600288020188555050505b505050505050565b6103ca8061038f5f395ff3fe608060405234801561000f575f5ffd5b5060043610610055575f3560e01c8063133a473e146100595780632fb6b6c814610077578063ab60636c14610095578063bb79d5c7146100b4578063fc98512e146100d2575b5f5ffd5b6100616100f0565b60405161006e91906102b8565b60405180910390f35b61007f61012d565b60405161008c91906102f0565b60405180910390f35b61009d610135565b6040516100ab929190610309565b60405180910390f35b6100bc6101ce565b6040516100c991906102b8565b60405180910390f35b6100da61020b565b6040516100e791906102b8565b60405180910390f35b60606040518060400160405280600881526020017f736c656570696e67000000000000000000000000000000000000000000000000815250905090565b5f6078905090565b60605f5f60015481805461014890610364565b80601f016020809104026020016040519081016040528092919081815260200182805461017490610364565b80156101bf5780601f10610196576101008083540402835291602001916101bf565b820191905f5260205f20905b8154815290600101906020018083116101a257829003601f168201915b50505050509150915091509091565b60606040518060400160405280600581526020017f576f6f6621000000000000000000000000000000000000000000000000000000815250905090565b60606040518060400160405280601281526020017f77616c6b73206f6e20666f7572206c6567730000000000000000000000000000815250905090565b5f81519050919050565b5f82825260208201905092915050565b8281835e5f83830152505050565b5f601f19601f8301169050919050565b5f61028a82610248565b6102948185610252565b93506102a4818560208601610262565b6102ad81610270565b840191505092915050565b5f6020820190508181035f8301526102d08184610280565b905092915050565b5f819050919050565b6102ea816102d8565b82525050565b5f6020820190506103035f8301846102e1565b92915050565b5f6040820190508181035f8301526103218185610280565b905061033060208301846102e1565b9392505050565b7f4e487b71000000000000000000000000000000000000000000000000000000005f52602260045260245ffd5b5f600282049050600182168061037b57607f821691505b60208210810361038e5761038d610337565b5b5091905056fea26469706673582212208f10f3262df427d8b4a4bf705aa1dd2bcb1d0dc7032ac14141910b25daa2c9e464736f6c63430008210033","linkReferences":{}},"methodIdentifiers":{"profile()":"ab60636c","sleep()":"133a473e","sound()":"bb79d5c7","stepsPerMinute()":"2fb6b6c8","walk()":"fc98512e"},"id":0}