{"abi":[{"type":"constructor","inputs":[{"name":"initialNumber","type":"uint256","internalType":"uint256"}],"stateMutability":"nonpayable"},{"type":"function","name":"increment","inputs":[],"outputs":[],"stateMutability":"nonpayable"},{"type":"function","name":"number","inputs":[],"outputs":[{"name":"","type":"uint256","internalType":"uint256"}],"stateMutability":"view"},{"type":"function","name":"resetToNetworkDefault","inputs":[],"outputs":[],"stateMutability":"nonpayable"},{"type":"function","name":"setNumber","inputs":[{"name":"newNumber","type":"uint256","internalType":"uint256"}],"outputs":[],"stateMutability":"nonpayable"}],"bytecode":{"object":"0x6080604052348015600e575f5ffd5b506040516104e93803806104e98339818101604052810190602e9190606b565b805f81905550506091565b5f5ffd5b5f819050919050565b604d81603d565b81146056575f5ffd5b50565b5f815190506065816046565b92915050565b5f60208284031215607d57607c6039565b5b5f6088848285016059565b91505092915050565b61044b8061009e5f395ff3fe608060405234801561000f575f5ffd5b506004361061004a575f3560e01c80633fb5c1cb1461004e5780638381f58a1461006a578063be43224214610088578063d09de08a14610092575b5f5ffd5b610068600480360381019061006391906102b0565b61009c565b005b6100726100a5565b60405161007f91906102ea565b60405180910390f35b6100906100aa565b005b61009a6100b9565b005b805f8190555050565b5f5481565b6100b26100d1565b5f81905550565b5f5f8154809291906100ca90610330565b9190505550565b5f5f6100dc466100e9565b9050806040015191505090565b6100f161025a565b617a6982036101545760405180606001604052806040518060400160405280600581526020017f616e76696c0000000000000000000000000000000000000000000000000000008152508152602001617a69815260200160078152509050610255565b62aa36a782036101b95760405180606001604052806040518060400160405280600781526020017f746573746e657400000000000000000000000000000000000000000000000000815250815260200162aa36a7815260200160018152509050610255565b6001820361021a5760405180606001604052806040518060400160405280600781526020017f6d61696e6e65740000000000000000000000000000000000000000000000000081525081526020016001815260200160648152509050610255565b6040517f08c379a000000000000000000000000000000000000000000000000000000000815260040161024c906103f7565b60405180910390fd5b919050565b6040518060600160405280606081526020015f81526020015f81525090565b5f5ffd5b5f819050919050565b61028f8161027d565b8114610299575f5ffd5b50565b5f813590506102aa81610286565b92915050565b5f602082840312156102c5576102c4610279565b5b5f6102d28482850161029c565b91505092915050565b6102e48161027d565b82525050565b5f6020820190506102fd5f8301846102db565b92915050565b7f4e487b71000000000000000000000000000000000000000000000000000000005f52601160045260245ffd5b5f61033a8261027d565b91507fffffffffffffffffffffffffffffffffffffffffffffffffffffffffffffffff820361036c5761036b610303565b5b600182019050919050565b5f82825260208201905092915050565b7f436f756e746572436861696e436f6e6669673a20756e737570706f72746564205f8201527f636861696e000000000000000000000000000000000000000000000000000000602082015250565b5f6103e1602583610377565b91506103ec82610387565b604082019050919050565b5f6020820190508181035f83015261040e816103d5565b905091905056fea26469706673582212201cde8c89543dcf82c85c3db1f385782714f8936aad35bbb209ea3da0b56d7f3964736f6c63430008210033","linkReferences":{}},"methodIdentifiers":{"increment()":"d09de08a","number()":"8381f58a","resetToNetworkDefault()":"be432242","setNumber(uint256)":"3fb5c1cb"},"id":23}